:020000040800F2
:1000000000200010014C0308313603085B70010822
:100010002F3603082D3603082B3603080000000096
:100020000000000000000000000000002936030866
:100030002736030800000000253603081571010863
:10004000694C0308694C0308694C0308694C0308B0
:10005000694C0308694C03089D1B0008C91C000873
:100060008D1C0008511C0008151C0008A97C000804
:10007000997C0008897C0008797C0008697C00086C
:10008000557C0008417C0008694C0308694C030852
:10009000CD390308694C0308694C0308D91B0008D3
:1000A00021400108F5430108694C03087145010826
:1000B000394301087D420108694C0308694C030873
:1000C000694C0308694C0308694C0308694C030830
:1000D000694C03084D720108D1710108557101087E
:1000E0005F1B0008694C030815360308694C0308B8
:1000F000ED400108694C0308B5410108694C03084B
:10010000000000000000000000000000694C03082F
:10011000694C0308694C03081DB5020809B50208BB
:100120002D7C0008197C0008057C0008F17B000884
:10013000DD7B0008694C030800000000000000009F
:10014000694C0308694C0308694C0308000000006F
:10015000000000000000000000000000000000009F
:100160000000000000000000694C0308694C03080F
:10017000694C0308000000000000000000000000BF
:0801800000000000694C0308B7
:100188000A4B30B503F10C0493F900205D78072A77
:10019800C8BF143A811804338D7213F8025C855471
:1001A80013F8012C0A759C42EED130BD5451030856
:1001B80003682DE9F0415D6A1DB12B46BDE8F041A9
:1001C8001847002A174611DD04460E460F4400E082
:1001D80023689B68204698470028F9D0236816F8BA
:1001E800011B1B6820469847BE42F1D1BDE8F0814B
:1001F80003681B6918470023282202704370837024
:10020800C3707047437A5A1C0344D2B2427299723F
:10021800037A93420AD84AB110B5044604F10A0198
:10022800D0E9003098470023637210BD7047CB07B0
:1002380002D4024B024ADA60704700BF00ED00E0CA
:100248000400FA0520B10078B0FA80F04009704740
:1002580001207047037903F01803082B0AD002D84D
:100268002BB100207047102B16D0182BF9D1B0F8FD
:100278000B007047114BB0F80B0093F90030591C74
:1002880006BF0F4B1B78DBB2C3EB0312C3EB820331
:1002980000EB430080B27047084BB0F80B0093F9AD
:1002A80001305A1C06BF064B5B78DBB203EB4302F6
:1002B80003EB820300EB430080B27047000000208C
:1002C8005C290020F0B5067906F06003402B09D1BF
:1002D80044794FF0FF350023012006F00706A342BA
:1002E8000BD1F0BD602B08BF45794FF001040CBF5E
:1002F80004FA05F54FF0FF35EDE7042E0CD8DFE8DA
:1003080006F0030D18242E0030B1C85CD75C784085
:1003180028420CBF012000200133E0E70028FBD071
:10032800C856D756A0EB070CDCF1000040EB0C00D8
:10033800F2E70028F0D031F8130032F81370784053
:1003480028420CBF01200020E6E70028E4D031F95C
:10035800130032F91370C71B78427841DCE7002894
:10036800DAD051F8230052F82370784028420CBFA5
:1003780001200020D0E745E790ED057A90ED004A8E
:10038800D0ED066AD0ED014AD0ED047A90ED035A1B
:10039800D0ED025AA4EE007AB0EE406AB0EE470AF9
:1003A800B0EE667AA4EE867A67EEC07AA5EE407A59
:1003B800E5EE867A80ED057AC0ED067A7047D0EDD5
:1003C800057A90ED013AD0ED003AD0ED064A90ED6D
:1003D800024A90ED077A90ED035A90ED086AD0ED45
:1003E800045AC0ED067AF0EE406A27EE830AC0EDA3
:1003F800056AA3EEA60A80ED087AA4EE240AA5EE03
:10040800470AA5EEC60A80ED070A7047D0ED007AC4
:1004180090ED017A30EE670AE7EE007AB0EE670AEF
:10042800C0ED007A704770470378202B024600F130
:100438000100F9D0092BF7D02D2B00F0A4802B2B2D
:1004480003BF5378B7EE000A0246B7EE000AA3F1DD
:100458003001C8B209289FED577A10D8F2EE046A25
:1004680007EE901AF8EEE77A12F8013FE7EE267ADF
:10047800A3F13001C8B20928B0EE677AF0D92E2B63
:1004880063D003F0DF03452B02D020EE070A704744
:1004980010B451782D294FD02B2979D0A1F13003F0
:1004A800092B02F101027AD80024002303EB83030D
:1004B80001EB430312F8011FA1F130000928A3F151
:1004C8003003F3D9B3F59A7F1A4628BF4FF49A72CE
:1004D800072B6CD9DFED386A1346F7EE007A083B34
:1004E800072B67EEA67AFAD802F00702DAB1F2EE25
:1004F800046A012A67EEA67A15D0022A67EEA67A60
:1005080011D0032A67EEA67A0DD0042A67EEA67AE0
:1005180009D0052A67EEA67A05D067EEA67A062ADC
:1005280018BF67EEA67A002C3BD087EE277A5DF8D5
:10053800044B20EE070A70479178A1F13003092B8C
:1005480002F1020230D80124AFE75378A3F1300159
:10055800C8B2092802F1010293D8F2EE046AF0EE5B
:10056800665A07EE901AF8EEE77A12F8013F87EE1E
:10057800A66AA3F13001C8B2092866EEA56A37EE6B
:10058800067AEED97DE75378BFEE000A02465EE7A9
:100598009178A1F13003092B02F1020284D9F7EE18
:1005A800007A27EE277AC2E7F7EE007ABDE7F7EE82
:1005B800007A9BE70000000020BCBE4C0028F0B485
:1005C80003DA2D230B7040420131092804464FF00D
:1005D800010307DD03EB83035B00B0FBF3F2092A99
:1005E800F8D883B10F48A0FB0326B4FBF3F2092A1D
:1005F80002F1570C02F1300709DD03FB1244F3083E
:1006080001F801CBEFD100230B70F0BC704703FB5E
:100618001244F30801F8017BE5D100230B70F0BC0C
:10062800704700BFCDCCCCCC884270B44FF00104E9
:1006380042D301FB04F4B0FBF4F58D42F9D2ECB1DE
:1006480042BB092D04FB150005F1570605F13002E0
:100658000EDDB4FBF1F403F8016B7CB1B0FBF4F5EB
:10066800092D04FB150005F1570605F13002F0DCF1
:10067800B4FBF1F403F8012B002CEFD100221A701F
:1006880070BC704703F8016BB4FBF1F4002CF5D093
:10069800B0FBF4F5092D04FB150005F1370605F14B
:1006A8003002EFDCB4FBF1F403F8012B002CEFD19E
:1006B80000221A7070BC70470546002AEAD1C0E7CC
:1006C80003685A1C0260197070472DE9F047089CAE
:1006D8002578002B804689460CBF4FF0200A4FF042
:1006E800300A661C25B3002A26DD334601E002469F
:1006F80098B113F8011B501E0029F8D1971E60B15C
:100708003D46013D51464046C8476B1C002BF8DC6E
:10071800257827EAE770013045B1041B2946404691
:10072800C847301916F8015B002DF7D1BDE8F087EE
:10073800002A03DC2846F9E70020EEE7571EDFE72A
:10074800034600F11001FF221A705A7002339942D1
:10075800FAD1027042708270C270027142717047A1
:1007680030B42322242325252D242E210270437002
:100778002F22FF23857044718171C2714373837383
:10078800C37003710372437230BC704730B40023E6
:100798000225012429213D2203700323457084701A
:1007A800C1708271C37130BC7047094B09498B42D3
:1007B80003D309E014338B4206D21A88C2F30B0222
:1007C8009042F7D11846704700231846704700BF7B
:1007D800E0D0030890D5030870B50546B0F80900C5
:1007E800FFF7E3FF064B1E7804462846FFF732FD65
:1007F80016B1A368184470BD63681844FBE700BFCE
:10080800300F002038B505460C46FFF7E5FF2A797A
:1008180002F0070302F06002602A28D1022B0ED0F2
:10082800042B18D03BB96A7901239340DBB20278D4
:1008380014B11343037038BD22EA0303FAE76A7957
:10084800012393409BB2028814B113430380F2E75B
:1008580022EA0303FAE76A79012303FA02F203683A
:1008680014B113430360E6E723EA0203FAE7042B13
:10087800E1D8DFE803F00303050507000470DAE7B1
:100888000480D8E70460D6E7002306214FF47A7283
:100898000170C0E90123037370474378007840EA88
:1008A800032010FB01F04FF4807190FBF1F000F38E
:1008B8000F0000B270472DE9F04FDFF8DCC1754C2E
:1008C800DCF804502288B4F90AA0C2EB25135200C0
:1008D800C2EBE502B4F902505B436A43B4F9045031
:1008E8001B135D43AD1305EBE225B5F5FA324FEA6C
:1008F800E57B85B04BF1FF33CDE90023DDE900321C
:100908005343009AA561A2FB0289CDE90201B4F91B
:1009180008200199009809EB43095143D31700FBBC
:100928000311A2FB00230B444FEAEA7B0AFB09F1FF
:100938001F0308FB0B13AAFB080119444FEA102AEE
:100948004AEA016A16034FEA212B47EA12571AEBC3
:100958000602E6884BEB070312F1000A43F5004B49
:10096800AAFB060106FB0B114A10CB1752EA03013A
:1009780000F08E80B4F91060009806FB09F1F717B3
:1009880008FB0711A6FB08673944B4F90E808B46AB
:1009980001994FEAE87908FB01F100FB0911A8FB6E
:1009A80000898944DCF808104FEA4947C1F5801CE2
:1009B80047EAD837B2464FEA4846B4F90C801AEBF2
:1009C800060A66464BEB070BF7174FEAC80601966F
:1009D80000260096F907DDE900674FEACC7016EBB0
:1009E8000A0647EB0B0741EA5C01801B61EB070134
:1009F80040F6354C8946A0FB0C010CFB091133F07D
:100A08002FFFB4F91620B4F914A04E13470B47EA88
:100A1800C14702FB06FCD31707FB03CCA2FB072345
:100A28006344564307FB0366A2FB07233344560E71
:100A380046EAC31632184FEA636747EB010380465C
:100A48000AFB01F14FEAEA7B08FB0B17AAFB080136
:100A58003944C60C46EA413612EB06084FEAE1472C
:100A6800B4F9122043EB07094FEA182141EA09615A
:100A780013010B44029A0AB11B0A1360039B23B1AA
:100A880005EB850580352D121D6005B0BDE8F08F9A
:100A98000023EFE7C01D0020300F0020704770478B
:100AA80010B5064C237B0BB9002010BD14F0B8FD1F
:100AB8002369C01AD0F5FA50F7D5F5E7300F0020B2
:100AC8004FF40063038370474FF400630383704758
:100AD800012380F85030704707B5F7216A462EF099
:100AE800FBFF9DF801309DF800100C4A1B0143EAFA
:100AF80001339DF8021043EA111393609DF8043006
:100B08009DF803101B0143EA01339DF8051043EAE1
:100B18001113536003B05DF804FB00BF300F0020D1
:100B280070B4D0E90041057B02690223AB406360E1
:100B38000B684FF6FE7003400B60EFF311835021F2
:100B480081F31288D66B3168C9071CD4706870B9F4
:100B5800D2E909418C4213D095690D44F56017D844
:100B68001469611A71609062002182F85810326825
:100B780042F00102DBB2326083F3118870BC704727
:100B8800012182F85810DBB283F3118870BC7047DA
:100B9800611A71609462E7E770B40468037B2268A5
:100BA800022101FA03F31A4216D0026911481249C8
:100BB800642505FB02020D785068016875B915694E
:100BC800528928684FF6FE7630402860C868D243BC
:100BD80092B20240CA60636070BC704700690268E4
:100BE8004FF6FE752A400260CA684FF6FF60024061
:100BF800CA60F0E7D45D0020D05D002010B5016820
:100C0800047B0A680223A3401A420AD0054A4068B6
:100C180000241470026822F001021204120C02600F
:100C28004B6010BD0850002030B50446406DA160EF
:100C3800036823F0010303606379257987B013F013
:100C4800040F4FEA03324FEA032303F4806302F4EC
:100C58000052CDE90223009114BF4FF480510021C6
:100C6800EB0748BF042301914FF00001CDE90411BF
:100C780054BF08230493694648BF0C23AD0748BFF7
:100C880004931AF0E9FE2079636D617900F002029D
:100C9800002A15BF4FF440324FF480324FF400342D
:100CA800002410F0010F586808BF2246CC074CBF3B
:100CB800024320EA02025A609A6809074CBF42F0D0
:100CC800080222F008029A601A6842F001021A60CB
:100CD80007B030BD30B40223142101221525222487
:100CE8000372417000234FF6FF714571C4700270A2
:100CF8000271827043818381C3810182817430BC17
:100D0800704710B427212624012200230470417063
:100D18008270C3705DF8044B704710B50368017B9F
:100D28001A6802238B40134204460FD00F4A5369B6
:100D38000133202B53610AD1182200210C4834F0CA
:100D4800B2F9217B226802238B40536010BD222B0D
:100D5800F7D100235361074A13704268136823F0E0
:100D680001031B041B0C1360EBE700BF300F0020CE
:100D7800101000200110002008B5202134F0AAF935
:100D88000346184623B10278202A03F10103F8D05C
:100D980008BD38B52C22002134F085F9034640F20D
:100DA800DC51642040F21A4240F20224187459823D
:100DB800132019219A8240F2753240F26C751C8317
:100DC80098760E2402201977DA830A210122DD821F
:100DD80083F82A0040F6430583F82B1083F8224055
:100DE8009A7383F8252083F829201D841946024820
:100DF800BDE838400FF0F0B9F497030838B5074C50
:100E0800074DAC4203D3074B00221A7038BD6288E5
:100E1800D4E9010134F023F91434F2E7E0D00308EF
:100E280090D50308300F002038B5074C074DAC4269
:100E380003D3074B01221A7038BD6288D4E9011028
:100E480034F00DF91434F2E7E0D0030890D5030824
:100E5800300F002010B500210446012013F08AFD50
:100E6800207010BDF8B5304E304D32782B789A424C
:100E78004FD12F4B93F800C0BCF1000F48D02D4A3A
:100E88002D4B1078002140F20D3E11E05C681F895F
:100E98006760276847F001072760A2F848E0D46830
:100EA800013144F480748C45D46003F59A730FDDE6
:100EB8001A680028EAD15062B3F83041D768013186
:100EC8003C438C45D46003F59A7323F8040CEFDC9B
:100ED80031782B7899421BD003EB83029200174F8D
:100EE800B858BE18A0B9327A92B9727A82B9013369
:100EF80003F00303D8B28142287009D003EB8303BF
:100F08009C003B191A7214F08BFB736803443B5125
:100F1800F8BD29F0E9FF0028FAD0054B93F800C086
:100F2800BCF1000FABD1D3E79C3D00209D3D0020D4
:100F3800F4600020D05D0020F8600020A03D002073
:100F4800002A12DD70B504460D468E182368204627
:100F58009B6898470028F9D0236815F8011B1B687F
:100F680020469847B542F1D170BD70470368DB6AE7
:100F780003B11847704703689B6A03B11847704765
:100F880003682DE9F0415D6A1DB12B46BDE8F041CB
:100F98001847002A174611DD04460E460F4400E0A4
:100FA80023689B68204698470028F9D0236816F8DC
:100FB800011B1B6820469847BE42F1D1BDE8F0816D
:100FC80003685B6918470368DB68184703689B6810
:100FD800184703685B68184703681B681847014B84
:100FE8001868F9E7B4260020054B53F8203033B1D0
:100FF8001A689B88918A0B4218BF1B04936170473B
:101008000453002003682DE9F04F03F13845A94E39
:10101800AD0A0124755D05F01F066D09022D04FA5D
:1010280006F400F08D81032D00F08581012D00F07C
:101038003B818088B0FA80F4C4F11F04A4B2E508AB
:1010480003EB850504F007042E6AA4000F27A740C8
:1010580026EA07062E622E6A01F0030702FA04F454
:101068007A1E3443012AC1F3810EC1F300182C62A1
:10107800C1F3411140F22281C60700F108818507BA
:1010880000F1F680440700F1E480020700F1D28005
:10109800C60600F1C080850600F1AE80440600F166
:1010A8009C80020600F18A80C60578D4850567D43D
:1010B800440556D4020545D4C60434D4850423D443
:1010C800440412D4020401D4BDE8F08F1A6822F057
:1010D80040421A601A6842EA87771F60DA6822F08D
:1010E800404242EA8171D960EEE71A6822F0405224
:1010F8001A601A6842EA07721A60DA6822F04052E7
:1011080042EA0172DA60DDE71A6822F040621A608A
:101118001A6842EA87621A60DA6822F0406242EA94
:101128008162DA60CCE71A6822F040721A601A68A5
:1011380042EA07621A60DA6822F0407242EA016203
:10114800DA60BBE71A6822F440021A601A6842EAB9
:1011580087521A60DA6822F4400242EA8152DA6061
:10116800AAE71A6822F440121A601A6842EA07527B
:101178001A60DA6822F4401242EA0152DA6099E70A
:101188001A6822F440221A601A6842EA87421A60F2
:10119800DA6822F4402242EA8142DA6088E71A6873
:1011A80022F440321A601A6842EA07421A60DA6882
:1011B80022F4403242EA0142DA6077E71A6822F400
:1011C80040421A601A6842EA87321A60DA6822F4E2
:1011D800404242EA8132DA6066E71A6822F44052F5
:1011E8001A601A6842EA07321A60DA6822F4405232
:1011F80042EA0132DA6054E71A6822F440621A605F
:101208001A6842EA87221A60DA6822F4406242EADF
:101218008122DA6042E71A6822F440721A601A687A
:1012280042EA07221A60DA6822F4407242EA01228E
:10123800DA6030E71A6822F0C0021A601A6842EAD7
:1012480087121A60DA6822F0C00242EA8112DA6074
:101258001EE71A6822F030021A601A6842EA07127A
:101268001A60DA6822F0300242EA0112DA600CE70A
:101278001A6822F00C021A601A6842EA87021A6099
:10128800DA6822F00C0242EA8102DA60FAE61A68A9
:1012980022F003021A601A683A431A60DA6822F0E8
:1012A80003020A43DA60EAE6034D6E6934436C616F
:1012B800BFE600BFA88903080010024000224FF0D3
:1012C800010C4FF003090CFA02F636EA00042ED19D
:1012D8005400D3F808A009FA04F5ED4305EA0A0A10
:1012E800C3F808A0D3F808B00EFA04FA4AEA0B0AC1
:1012F800C3F808A0B3F804A02AEA06069E80B3F84B
:1013080004A008FA02F646EA0A06B6B29E801E68EB
:101318002E401E60D3F800A007FA04F646EA0A0633
:101328001E60DE6801FA04F435402C43DC600132AB
:10133800102AC8D1C8E6054DEE693443EC6178E659
:10134800024DAE693443AC6173E600BF0010024041
:1013580010B50409013C052C17D80E4B33F814209E
:1013680000F00F0042FA00F313F001030FD001233D
:1013780003FA00F00138104033F0C2FA064A074B6E
:10138800125D104403EBC00010BD002010BD1846CC
:1013980010BD00BF94890308A0890308A84E002047
:1013A8002DE9F04F4A484B4B4B4C4FF090414FF0D2
:1013B800010A4FF002094FF004084FF0080E4FF0F1
:1013C800100C20274026802530F8022B12F0010F40
:1013D80003D01960A3F804A0083312F0020F03D059
:1013E8001960A3F80490083312F0040F03D01960B1
:1013F800A3F80480083312F0080F03D01960A3F88B
:1014080004E0083312F0100F03D01960A3F804C0E9
:10141800083312F0200F02D019609F80083312F0B1
:10142800400F02D019609E80083312F0800F02D05E
:1014380019609D80083312F4807F05D04FF4807BBB
:101448001960A3F804B0083312F4007F05D04FF4F4
:10145800007B1960A3F804B0083312F4806F05D03C
:101468004FF4806B1960A3F804B0083312F4006FCE
:1014780005D04FF4006B1960A3F804B0083312F4D8
:10148800805F05D04FF4805B1960A3F804B008337F
:1014980012F4005F05D04FF4005B1960A3F804B0A4
:1014A800083312F4804F05D04FF4804B1960A3F82D
:1014B80004B00833D20B04D04FF4004219609A806C
:1014C800083301F58061A1427FF47EAFBDE8F08F5B
:1014D80094890308A84E00200018004800B97047F6
:1014E80003682DE9F04F03F138449C4EA40A012506
:1014F800345D04F01F066409022C05FA06F500F0B5
:101508007481032C00F06C81012C00F0228180880A
:10151800B0FA80F4C4F11F04A4B2E50803EB850512
:1015280004F007042E6AA4000F27A74026EA07063E
:101538002E622E6A01F00307A2407C1E3243012C62
:10154800C1F3810EC1F300182A62C1F3411140F2C0
:101558000981C6070BD51A6822F003021A601A68B7
:101568003A431A60DA6822F003020A43DA60850710
:101578000DD51A6822F00C021A601A6842EA87022E
:101588001A60DA6822F00C0242EA8102DA60440743
:101598000DD51A6822F030021A601A6842EA07125A
:1015A8001A60DA6822F0300242EA0112DA600207B1
:1015B8000DD51A6822F0C0021A601A6842EA87122A
:1015C8001A60DA6822F0C00242EA8112DA60C606BE
:1015D8000DD51A6822F440721A601A6842EA072286
:1015E8001A60DA6822F4407242EA0122DA6085065B
:1015F8000DD51A6822F440621A601A6842EA8722F6
:101608001A60DA6822F4406242EA8122DA6044060B
:101618000DD51A6822F440521A601A6842EA073255
:101628001A60DA6822F4405242EA0132DA600206AD
:101638000DD51A6822F440421A601A6842EA8732C5
:101648001A60DA6822F4404242EA8132DA60C6055A
:101658000DD51A6822F440321A601A6842EA074225
:101668001A60DA6822F4403242EA0142DA608505FB
:101678000DD51A6822F440221A601A6842EA874295
:101688001A60DA6822F4402242EA8142DA604405AC
:101698000DD51A6822F440121A601A6842EA0752F5
:1016A8001A60DA6822F4401242EA0152DA6002054E
:1016B8000DD51A6822F440021A601A6842EA875265
:1016C8001A60DA6822F4400242EA8152DA60C604FB
:1016D8000DD51A6822F040721A601A6842EA076249
:1016E8001A60DA6822F0407242EA0162DA60850420
:1016F8000DD51A6822F040621A601A6842EA8762B9
:101708001A60DA6822F0406242EA8162DA604404D0
:101718000DD51A6822F040521A601A6842EA077218
:101728001A60DA6822F0405242EA0172DA60020472
:101738000DD51A6822F040421A601A6842EA877783
:101748001F60DA6822F0404242EA8171D960BDE840
:10175800F08F034C666935436561D8E6A8890308AC
:101768000010024000224FF0010C4FF003090CFA60
:1017780002F636EA00042ED15400D3F808A009FA7C
:1017880004F5ED4305EA0A0AC3F808A0D3F808B03F
:101798000EFA04FA4AEA0B0AC3F808A0B3F804A040
:1017A8002AEA06069E80B3F804A008FA02F646EA7A
:1017B8000A06B6B29E801E682E401E60D3F800A0AE
:1017C80007FA04F646EA0A061E60DE6801FA04F41F
:1017D80035402C43DC600132102AC8D1BDE8F08FB7
:1017E800044CE6693543E56191E6024CA669354348
:1017F800A5618CE60010024000B97047036803F148
:1018080038422DE9F04F920AB24DAA5C02F01F054A
:1018180052090124022A04FA05F400F05F81032A20
:1018280000F05381012A00F00D8101F003077A1EB0
:10183800012AC1F3810EC1F300188488C1F3411154
:1018480040F20581E6070BD51A6822F003021A60F8
:101858001A683A431A60DA6822F003020A43DA6027
:10186800A5070DD51A6822F00C021A601A6842EA18
:1018780087021A60DA6822F00C0242EA8102DA6012
:1018880060070DD51A6822F030021A601A6842EA19
:1018980007121A60DA6822F0300242EA0112DA60AE
:1018A80022070DD51A6822F0C0021A601A6842EAA7
:1018B80087121A60DA6822F0C00242EA8112DA60FE
:1018C800E6060DD51A6822F440721A601A6842EAD0
:1018D80007221A60DA6822F4407242EA0122DA60CA
:1018E800A5060DD51A6822F440621A601A6842EA01
:1018F80087221A60DA6822F4406242EA8122DA60BA
:1019080060060DD51A6822F440521A601A6842EA35
:1019180007321A60DA6822F4405242EA0132DA6089
:1019280022060DD51A6822F440421A601A6842EA63
:1019380087321A60DA6822F4404242EA8132DA6079
:10194800E6050DD51A6822F440321A601A6842EA90
:1019580007421A60DA6822F4403242EA0142DA6049
:10196800A5050DD51A6822F440221A601A6842EAC1
:1019780087421A60DA6822F4402242EA8142DA6039
:1019880060050DD51A6822F440121A601A6842EAF6
:1019980007521A60DA6822F4401242EA0152DA6009
:1019A80022050DD51A6822F440021A601A6842EA24
:1019B80087521A60DA6822F4400242EA8152DA60F9
:1019C800E6040DD51A6822F040721A601A6842EAD5
:1019D80007621A60DA6822F0407242EA0162DA604D
:1019E800A5040DD51A6822F040621A601A6842EA06
:1019F80087621A60DA6822F0406242EA8162DA603D
:101A080060040DD51A6822F040521A601A6842EA3A
:101A180007721A60DA6822F0405242EA0172DA600C
:101A280022040DD51A6822F040421A601A6842EA68
:101A380087771F60DA6822F0404242EA8171D960F4
:101A4800BDE8F08F244A55692C435461EDE6002225
:101A58004FF0010C4FF003090CFA02F636EA0400C5
:101A68002ED15000D3F808A009FA00F5ED430AEA90
:101A7800050AC3F808A0D3F808B00EFA00FA4AEA33
:101A88000B0AC3F808A0B3F804A02AEA06069E8049
:101A9800B3F804A008FA02F646EA0A06B6B29E802F
:101AA8001E682E401E60D3F800A007FA00F646EA2A
:101AB8000A061E60DE6801FA00F035402843D86047
:101AC8000132102AC8D1BDE8F08F034AD5692C43EA
:101AD800D461AAE6A889030800100240024A956961
:101AE8002C439461A1E600BF0010024010B10368C6
:101AF80082881A85704710B1036882889A61704796
:101B080018B1838811B10268936170471B04FAE722
:101B180010B40A4B0A4A1C7801238340234052F828
:101B2800200029B9B3FA83F149095DF8044BE7E7C6
:101B3800191C18BF01215DF8044BE1E70053002090
:101B48000453002030B102688388128A1A4214BFF5
:101B58000120002070472DE9F0410C4E356873696B
:101B68001D4010D0DFF828800127B5FA85F4C4F1AC
:101B78001F0408EB840307FA04F49869036898477C
:101B8800A5437461F1D1BDE8F08100BF00040140B4
:101B9800300F00202DE9F0410B4E356873691D4068
:101BA80010D0DFF828800127B5FA85F4C4F11F04A6
:101BB80008EB840307FA04F4986903689847A54377
:101BC8007461F1D1BDE8F08100040140300F0020BC
:101BD8002DE9F0410B4E356873691D4010D0DFF8D0
:101BE80028800127B5FA85F4C4F11F0408EB8403A3
:101BF80007FA04F4986903689847A5437461F1D11A
:101C0800BDE8F08100040140300F00202DE9F041CB
:101C18000B4E356873691D4010D0DFF82880012706
:101C2800B5FA85F4C4F11F0408EB840307FA04F439
:101C3800986903689847A5437461F1D1BDE8F081BC
:101C480000040140300F00202DE9F0410B4E3568AB
:101C580073691D4010D0DFF828800127B5FA85F494
:101C6800C4F11F0408EB840307FA04F498690368B5
:101C78009847A5437461F1D1BDE8F08100040140A3
:101C8800300F00202DE9F0410B4E356873691D4077
:101C980010D0DFF828800127B5FA85F4C4F11F04B5
:101CA80008EB840307FA04F4986903689847A54386
:101CB8007461F1D1BDE8F08100040140300F0020CB
:101CC8002DE9F0410B4E356873691D4010D0DFF8DF
:101CD80028800127B5FA85F4C4F11F0408EB8403B2
:101CE80007FA04F4986903689847A5437461F1D129
:101CF800BDE8F08100040140300F0020094A10B50A
:101D08009369094C43F00103936104F118004022E0
:101D1800002133F0C8F94FF0FF33A365C4F85B30F6
:101D280010BD00BF00100240300F002003681B6A7E
:101D3800184770B44E1C0568C2728672AC69A44616
:101D480070BC60472DE9F041044618460D4616461A
:101D58001F4632F0E9FA2844A0722068E672294644
:101D680045693B4632462046AC46BDE8F0416047EF
:101D7800036810B504461B689847236820469B688B
:101D88009847E37B0133E37310BD10B5036804463D
:101D98009B689847FF230122A373627310BD70B537
:101DA800054600780E46FFF7D3FA044618B13823E3
:101DB80001368371C67120466978FFF71DFDAB783F
:101DC800204613B1BDE8704095E6BDE870408DE649
:101DD8000B4B984211D0A3F57843984202D04FF0AC
:101DE800FF3070470122074B03EB02135A89013277
:101DF80092B25A81588980B270470022F3E700BF37
:101E08000030014010290020F8B584894FF6FF768C
:101E18004FF47A7413F1FF3325D311B30F780131DE
:101E280001E0B44217D00589013CAD07A4B2F8D54A
:101E380007734FF47A7402E0BCB2B4420BD0058940
:101E4800ED0704F1FF37F7D5057BEDB2002AE1D0A5
:101E580015700132DEE7FFF7BBFF003018BF012025
:101E6800F8BDFF27DFE70120F8BD08B5838940F2F8
:101E7800E93300E09BB10289013B12F0020F9BB2EB
:101E8800F8D0017340F2E93300E043B10289013B25
:101E980012F0010F9BB2F8D0007BC0B208BDFFF76B
:101EA80097FFC0B208BDF8B50546806816461F46BC
:101EB80010B1036882881A85686840F2E93483891A
:101EC80001E0002C44D00389013C13F0020FA4B2B6
:101ED800F7D0017340F2E93101E0002938D00389D5
:101EE800013913F0010F89B2F7D0037B6868838941
:101EF8004FF0000C4FF47A714FF6FF724FF0FF0E5F
:101F0800674502D11DE0914219D0038901399C0728
:101F180089B2F8D580F80CE04FF47A7102E0A1B2EA
:101F280091420CD00389DB0701F1FF34F7D5037B1D
:101F3800DBB20EB1337001360CF1010CE0E7FFF7AC
:101F480047FFAB6813B11A689B8893610120F8BDFD
:101F5800FFF73EFFCAE738B504460D46FEF7A0FD79
:101F6800246808B114F0A2F9054B00221A73C9219C
:101F78005B7B2A462046FFF796FF012038BD00BF4D
:101F8800300F002038B583680446154613B11A6827
:101F98009B881385606840F2E933828901E0002B51
:101FA80030D00289013B12F0020F9BB2F7D00173C7
:101FB80040F2E93300E02BB30289013B12F0010F34
:101FC8009BB2F8D0037B606840F2E933828900E075
:101FD800DBB10189013B11F0020F9BB2F8D0057308
:101FE80040F2E93300E083B10289013B12F0010FAE
:101FF8009BB2F8D0037BA36813B11A689B889361DE
:10200800012038BDFFF7E4FEDDE7FFF7E1FEF2E768
:1020180010B504464068A268038823F040031B04F7
:102028001B0C0380038823F038031B041B0C03805C
:10203800038843F04003038012B1136892881A851D
:10204800838940F2E93301E0002B44D00289013B47
:1020580012F0020F9BB2F7D0F523037340F2E93375
:1020680001E0002B37D00289013B12F0010F9BB22F
:10207800F7D0037B6068838940F2E93300E00BB353
:102088000289013B12F0020F9BB2F8D0FF230373C1
:1020980040F2E93300E0ABB10289013B12F0010FD5
:1020A8009BB2F8D0017BC9B2A36813B11A689B88A8
:1020B8009361712918D008D9AC2913D0AF290DD153
:1020C800092010BDFFF784FEEEE712290ED0702913
:1020D80006D1052010BDFFF77BFECBE7732903D09F
:1020E800002010BD072010BD062010BD082010BD1F
:1020F800F0B5836983B0064613B11A689B881385C7
:102108007069DFF8A0C08389C3244FF47A73062767
:102118006D464FF6FF710CF1010C03E0013B9BB2D9
:102128008B421CD002899207F8D504734FF47A7356
:1021380002E0A3B28B4212D00289D20703F1FF3426
:10214800F7D5027BD2B20DB12A7001354FB1013FEC
:10215800FF24BCF1000FE5D09CF80040DBE7FFF757
:1021680037FEB36913B11A689B8893619DF805001F
:102178009DF801509DF802109DF803409DF8042039
:102188009DF8063041EA052143EA002342EA042289
:102198000120A6F85010A6F85220A6F8543003B033
:1021A800F0BD00BF60510308F8B50378012B49D092
:1021B800022B4DD1836801F07F0113B11C689B8805
:1021C800238504464068154640F2E933828902E0D7
:1021D800002B00F0A0800289013B12F0020F9BB295
:1021E800F6D0017340F2E93302E0002B00F093804F
:1021F8000289013B12F0010F9BB2F6D0037B6068A5
:1022080040F2E933828902E0002B00F081800189E5
:10221800013B11F0020F9BB2F6D0057340F2E9338F
:1022280001E0002B74D00289013B12F0010F9BB230
:10223800F7D0037BA368002B68D01A689B8893614A
:102248000120F8BD90F904305C1C01D0022B01DD9F
:102258000020F8BD434C03EB830304EB83035B6866
:10226800002B6DD04579404E6D004FF42040EDB203
:1022780030669C69270400F1FF303DD45C683B4F11
:1022880045F080703C4040F4903020434FF42044A7
:102298005860346601E0671C54D0986910F0020059
:1022A80004F1FF34F7D04FF42040996230660146BC
:1022B80001E04F1C19D0986910F0800001F1FF313E
:1022C800F7D05968294845F00075014045F4803534
:1022D8000D434FF420415D603166986910F00200AB
:1022E80001F1FF311AD14C1CF7D1214A316613880C
:1022F80001339BB21380F8BD441CBAD11C4A306626
:10230800138801339BB213800020F8BD0120F8BD6B
:10231800FFF75EFD8EE7FFF75BFD70E74FF42041A6
:102328009A6231660A4602E012F1FF3211D39969C6
:1023380011F02001F8D020213266D9610120F8BDC2
:102348001846F8BD0A4A3466138801339BB21380D5
:10235800F8BD074C3266238801339BB208462380B8
:10236800F8BD00BF20450020300F0020009800FC79
:10237800602400203122F42116E72DE9F04F8BB0BC
:1023880090F861300390002B40F01F86039B93F870
:102398005830072B00F00F861823CDE90433039B30
:1023A800BD4CBE4EDFF80083BD4F10331846802267
:1023B8006B210293FFF7F8FE6423DFF8F0E2B948D7
:1023C80001934FF01009DEF80430C3F30803002B23
:1023D80040F0C284EFF31183002B40F0BD842568E0
:1023E800826823689D42FAD13B689A42F7D8D6F8AA
:1023F80000C04FF47A7101FB0CF39B1AB3FBFCF39A
:1024080001FB05354FF47A7C4FF0010ADEF8043001
:10241800C3F30803002B40F05E84EFF31183002B15
:1024280040F059842368816822689342FAD13A6857
:102438009142F7D832680CFB02FBABEB0101B1FB10
:10244800F2F10CFB03135B1BB3F57A7FDED3019B20
:10245800013B0193B7D1072268210298DFF848822F
:102468008F4FFFF7A1FE6423DFF840E28D48019308
:102478004FF01009DEF80430C3F30803002B40F0D6
:102488004984EFF31183002B40F044842568826867
:1024980023689D42FAD13B689A42F7D8D6F800C023
:1024A8004FF47A7101FB0CF39B1AB3FBFCF301FBAD
:1024B80005354FF47A7C4FF0010ADEF80430C3F397
:1024C8000803002B40F0E983EFF31183002B40F061
:1024D800E4832368816822689342FAD13A6891427A
:1024E800F7D832680CFB02FBABEB0101B1FBF2F150
:1024F8000CFB03135B1BB3F57A7FDED3019B013B17
:102508000193B7D11A466B210298DFF89C81644F7A
:10251800FFF74AFE6423DFF894E1624801934FF025
:102528001009DEF80430C3F30803002B40F0DC8404
:10253800EFF31183002B40F0D78425688268236865
:102548009D42FAD13B689A42F7D8D6F800C04FF4BA
:102558007A7101FB0CF39B1AB3FBFCF301FB053505
:102568004FF47A7C4FF0010ADEF80430C3F3080315
:10257800002B40F07483EFF31183002B40F06F833E
:102588002368816822689342FAD13A689142F7D861
:1025980032680CFB02FBABEB0101B1FBF2F10CFB67
:1025A80003135B1BB3F57A7FDED3019B013B0193D9
:1025B800B7D101226B210298DFF8EC80384FFFF782
:1025C800F3FD0F23DFF8E4E0364801934FF01009DC
:1025D800DEF80430C3F30803002B40F06384EFF304
:1025E8001183002B40F05E842568826823689D4231
:1025F800FAD13B689A42F7D8D6F800C04FF47A71FE
:1026080001FB0CF39B1AB3FBFCF301FB05354FF4FC
:102618007A7C4FF0010ADEF80430C3F30803002B7C
:1026280040F0FF82EFF31183002B40F0FA82236819
:10263800816822689342FAD13A689142F7D83268A1
:102648000CFB02FBABEB0101B1FBF2F10CFB03133A
:102658005B1BB3F57A7FDED3019B013B0193B7D1B6
:10266800049A0298DFF840800D4F1B21FFF79CFD6C
:102678000F23DFF838E00B4801934FF01009DEF81C
:102688000430C3F30803002B40F07184EFF3118387
:10269800002B40F06C840BE0A44E0020385300203F
:1026A8003C53002010E000E03453002000ED00E02F
:1026B8002568826823689D42FAD13B689A42F7D818
:1026C800D6F800C04FF47A7101FB0CF39B1AB3FBE8
:1026D800FCF301FB05354FF47A7C4FF0010ADEF874
:1026E8000430C3F30803002B40F07D82EFF311831D
:1026F800002B40F078822368816822689342FAD1DF
:102708003A689142F7D832680CFB02FBABEB010147
:10271800B1FBF2F10CFB03135B1BB3F57A7FDED33D
:10272800019B013B0193AAD1059A0298DFF80C831B
:10273800C04F1C21FFF738FD0F23DFF804E3BE4824
:1027480001934FF01009DEF80430C3F30803002B9F
:1027580040F0EC83EFF31183002B40F0E78325680A
:10276800826823689D42FAD13B689A42F7D8D6F826
:1027780000C04FF47A7101FB0CF39B1AB3FBFCF316
:1027880001FB05354FF47A7C4FF0010ADEF804307E
:10279800C3F30803002B40F00882EFF31183002BEA
:1027A80040F003822368816822689342FAD13A682C
:1027B8009142F7D832680CFB02FBABEB0101B1FB8D
:1027C800F2F10CFB03135B1BB3F57A7FDED3019B9D
:1027D800013B0193B7D1039A92F85B30032B00F2C7
:1027E800E88392F85E20A2F10102B2FA82F252095D
:1027F8001A210298DFF844828E4FFFF7D5FC0F2389
:10280800DFF83CE28C4801934FF01009DEF8043001
:10281800C3F30803002B40F0E282EFF31183002B8F
:1028280040F0DD822568826823689D42FAD13B68C2
:102838009A42F7D8D6F800C04FF47A7101FB0CF32E
:102848009B1AB3FBFCF301FB05354FF47A7C4FF080
:10285800010ADEF80430C3F30803002B40F0878137
:10286800EFF31183002B40F082812368816822688E
:102878009342FAD13A689142F7D832680CFB02FBCE
:10288800ABEB0101B1FBF2F10CFB03135B1BB3F5DE
:102898007A7FDED3019B013B0193B7D1039B02985A
:1028A80093F86020DFF89481624F1921FFF77CFCD0
:1028B8006423DFF88CE1604801934FF01009DEF8DB
:1028C8000430C3F30803002B40F06882EFF3118350
:1028D800002B40F063822568826823689D42FAD104
:1028E8003B689A42F7D8D6F800C04FF47A7101FBDA
:1028F8000CF39B1AB3FBFCF301FB05354FF47A7C10
:102908004FF0010ADEF80430C3F30803002B40F04F
:102918001081EFF31183002B40F00B81236881684D
:1029280022689342FAD13A689142F7D832680CFB90
:1029380002FBABEB0101B1FBF2F10CFB03135B1BD8
:10294800B3F57A7FDED3019B013B0193B7D1102207
:1029580037210298DFF8E480364FFFF725FC0F2374
:10296800DFF8DCE0344801934FF01009DEF804305A
:10297800C3F30803002B40F07482EFF31183002B9C
:1029880040F06F822568826823689D42FAD13B68CF
:102998009A42F7D8D6F800C04FF47A7101FB0CF3CD
:1029A8009B1AB3FBFCF301FB05354FF47A7C4FF01F
:1029B800010ADEF80430C3F30803002B40F09B80C3
:1029C800EFF31183002B40F096802368816822681A
:1029D8009342FAD13A689142F7D832680CFB02FB6D
:1029E800ABEB0101B1FBF2F10CFB03135B1BB3F57D
:1029F8007A7FDED3019B013B0193B7D10298DFF8C0
:102A08003C800C4F01223821FFF7CEFB0F23DFF863
:102A180030E0094801934FF01009DEF80430C3F3A1
:102A28000803002B40F0FC81EFF31183002B40F0EA
:102A3800F78107E03C53002010E000E03453002009
:102A480000ED00E02568826823689D42FAD13B6862
:102A58009A42F7D8D6F800C04FF47A7101FB0CF30C
:102A68009B1AB3FBFCF301FB05354FF47A7C4FF05E
:102A7800010ADEF80430C3F30803F3B9EFF3118356
:102A8800DBB92368816822689342FAD13A68914297
:102A9800F7D832680CFB02FBABEB0101B1FBF2F19A
:102AA8000CFB03135B1BB3F57A7FE2D3019B013B5D
:102AB8000193B2D10BB0BDE8F08FEFF3118189F328
:102AC8001288D0F808B00368DB0344BFC8F800A038
:102AD800D0F808B02368D8F80020C9B281F311886B
:102AE800316813440CFB01F2A2EB0B02B2FBF1F2CA
:102AF8000CFB0323D6E7EFF3118189F31288D0F892
:102B080008B00368DB0344BFC8F800A0D0F808B0D9
:102B18002368D8F80020C9B281F3118831681344BA
:102B28000CFB01F2A2EB0B02B2FBF1F20CFB03234C
:102B38005CE7EFF3118189F31288D0F808B00368D5
:102B4800DB0344BFC8F800A0D0F808B02368D8F861
:102B58000020C9B281F31188316813440CFB01F2DB
:102B6800A2EB0B02B2FBF1F20CFB0323E7E6EFF357
:102B7800118189F31288D0F808B00368DB0344BFD9
:102B8800C8F800A0D0F808B02368D8F80020C9B267
:102B980081F31188316813440CFB01F2A2EB0B029C
:102BA800B2FBF1F20CFB032370E6EFF3118189F31A
:102BB8001288D0F808B00368DB0344BFC8F800A047
:102BC800D0F808B02368D8F80020C9B281F311887A
:102BD800316813440CFB01F2A2EB0B02B2FBF1F2D9
:102BE8000CFB0323EFE5EFF3118189F31288D0F88A
:102BF80008B00368DB0344BFC8F800A0D0F808B0E9
:102C08002368D8F80020C9B281F3118831681344C9
:102C18000CFB01F2A2EB0B02B2FBF1F20CFB03235B
:102C28007AE5EFF3118189F31288D0F808B00368C8
:102C3800DB0344BFC8F800A0D0F808B02368D8F870
:102C48000020C9B281F31188316813440CFB01F2EA
:102C5800A2EB0B02B2FBF1F20CFB0323F8E4EFF357
:102C6800118189F31288D0F808B00368DB0344BFE8
:102C7800C8F800A0D0F808B02368D8F80020C9B276
:102C880081F31188316813440CFB01F2A2EB0B02AB
:102C9800B2FBF1F20CFB032383E4EFF3118189F318
:102CA8001288D0F808B00368DB0344BFC8F800A056
:102CB800D0F808B02368D8F80020C9B281F3118889
:102CC800316813440CFB01F2A2EB0B02B2FBF1F2E8
:102CD8000CFB03230EE4EFF3118189F31288D0F87B
:102CE80008B00368DB0344BFC8F800A0D0F808B0F8
:102CF8002368D8F80020C9B281F3118831681344D9
:102D08000CFB01F2A2EB0B02B2FBF1F20CFB03236A
:102D1800FFF799BBEFF3118389F31288D0F808C045
:102D28000268D20304D50122C8F80020D0F808C0F0
:102D38002568D8F800A0DBB283F3118831684FF416
:102D48007A72554402FB01F3A3EB0C03B3FBF1F3D6
:102D580002FB0535FFF7ADBBEFF3118389F312884A
:102D6800D0F808C00268D20304D50122C8F80020B0
:102D7800D0F808C02568D8F800A0DBB283F3118822
:102D880031684FF47A72554402FB01F3A3EB0C034C
:102D9800B3FBF1F302FB0535FFF734BBEFF3118307
:102DA80089F31288D0F808C00268D20304D501223A
:102DB800C8F80020D0F808C02568D8F800A0DBB211
:102DC80083F3118831684FF47A72554402FB01F39A
:102DD800A3EB0C03B3FBF1F302FB05358EE5EFF330
:102DE800118389F31288D0F808C00268D20304D589
:102DF8000122C8F80020D0F808C02568D8F800A03B
:102E0800DBB283F3118831684FF47A72554402FBC0
:102E180001F3A3EB0C03B3FBF1F302FB053514E557
:102E2800EFF3118389F31288D0F808C00268D2033F
:102E380004D50122C8F80020D0F808C02568D8F8C1
:102E480000A0DBB283F3118831684FF47A725544DD
:102E580002FB01F3A3EB0C03B3FBF1F302FB053513
:102E680003E6EFF3118389F31288D0F808C00268EB
:102E7800D20304D50122C8F80020D0F808C025687C
:102E8800D8F800A0DBB283F3118831684FF47A7266
:102E9800554402FB01F3A3EB0C03B3FBF1F302FB74
:102EA800053582E5EFF3118389F31288D0F808C05D
:102EB8000268D20304D50122C8F80020D0F808C05F
:102EC8002568D8F800A0DBB283F3118831684FF485
:102ED8007A72554402FB01F3A3EB0C03B3FBF1F345
:102EE80002FB0535FFF793BBEFF3118389F31288D3
:102EF800D0F808C00268D20304D50122C8F800201F
:102F0800D0F808C02568D8F800A0DBB283F3118890
:102F180031684FF47A72554402FB01F3A3EB0C03BA
:102F2800B3FBF1F302FB0535FFF71ABBEFF311838F
:102F380089F31288D0F808C00268D20304D50122A8
:102F4800C8F80020D0F808C02568D8F800A0DBB27F
:102F580083F3118831684FF47A72554402FB01F308
:102F6800A3EB0C03B3FBF1F302FB05350AE4EFF323
:102F7800118389F31288D0F808C00268D20304D5F7
:102F88000122C8F80020D0F808C02568D8F800A0A9
:102F9800DBB283F3118831684FF47A72554402FB2F
:102FA80001F3A3EB0C03B3FBF1F302FB0535FFF7C9
:102FB80092BB019A1CE4039B93F85D30002B44D12B
:102FC8001023CDE90433FFF7EAB91C09013C052CAD
:102FD80003F00F033FD8684A32F8140040FA03F2AE
:102FE800D60738D5012707FA03F3013B184031F01B
:102FF80087FC624BDFF898A113F8049081441AEB20
:10300800C90428D05AF83900A388028A1A407FF4E4
:10301800BDA9B3FA83F12025C1F11F01039EE27116
:10302800A571574AF2604D1C1AD1B3FA83F3C3F164
:103038001F03581C3FF4AAA9012202FA03F35149BD
:103048000A6813430B60FFF7A1B918231021CDE9D3
:103058000431FFF7A4B9039A494BD3600123EEE783
:1030680000F13842920ADFF82CC1DFF82CB11CF8C5
:1030780002C0454D0BEB01080CF01F0205EB810166
:103088004FEA5C1C06F10C0EBCF1020F07FA02F2C3
:1030980098F81480C1F818E04BD0BCF1030F66D043
:1030A800BC455FD008A90027CDE9083718F0A4FA75
:1030B800A3885AF83910DFF8E4C0B3FA83F3C3F1F0
:1030C8001F03D8B200F0FC0202F1804202F5803200
:1030D80000F0030080004FF00F0E0EFA00F9D2F84E
:1030E80008E02EEA090EC2F808E0D2F80890C1F309
:1030F8008721814041EA0901916003F01F0E23F006
:103108001F014FF0010909FA0EFE454441F80CE091
:10311800082208A808938DF824708DF826908DF859
:1031280025202CF067FC95F85830F02B06D8A3889A
:103138007BE7164FB9690A43BA61B3E70BEB080698
:10314800F02296F824308DF81C3007A803238DF858
:103158001E708DF81F9085F858208DF81D3018F0D6
:1031680077F8E4E7094F79690A437A619AE70749EA
:10317800CF693A43CA6195E794890308A08903088F
:10318800D90A000800040140300F00200010024056
:10319800A84E0020A88903085451030814040140CC
:1031A8004269138823F040031B041B0C2DE9F04FE0
:1031B800138013889BB223F0380343F03003138045
:1031C800138883B043F040031380019012F028FA6B
:1031D800044612F025FA8442FBD0019C2046FFF7F2
:1031E800CCF8A36913B11A689B881385019B5869A9
:1031F80040F2E933828902E0002B00F0AB800289BB
:10320800013B12F0020F9BB2F6D06A23037340F21F
:10321800E93302E0002B00F09D800289013B12F0A7
:10322800010F9BB2F6D0037B019B586940F2E9334A
:10323800828902E0002B00F090800289013B12F0A5
:10324800020F9BB2F6D01023037340F2E93302E079
:10325800002B00F082800289013B12F0010F9BB223
:10326800F6D0037B019B9B6913B11A689B88936115
:1032780064233B4CDFF8F490DFF8F480394DDFF835
:10328800F4A0394E009312F0CBF94FF47A774FF04F
:10329800100C4FF0010ED8F80430C3F30803002BCC
:1032A80039D1EFF31183002B35D12368A96822683F
:1032B8009342FAD132689142F7D8D9F8002007FB37
:1032C80002FBABEB0101B1FBF2F107FB03131B1A85
:1032D800B3F57A7FDFD3009B013B0093D3D1019BE9
:1032E8005A69138823F040031B041B0C13801388AE
:1032F80023F038031B041B0C1380138843F040038E
:10330800138012F08DF9044612F08AF98442FBD03A
:1033180003B0BDE8F08FEFF311818CF31288D5F874
:1033280008B02B68DB0344BFCAF800E0D5F808B042
:103338002368DAF80020C9B281F31188D9F800109F
:10334800134407FB01F2A2EB0B02B2FBF1F207FBFD
:103358000323BCE7FEF73CFD66E7FEF739FD81E78E
:10336800A44E002010E000E03C5300203853002019
:1033780000ED00E034530020427A4AB110B504460B
:1033880004F10A01D0E9003098470023637210BDA8
:103398007047A8B10D4B012210B402FA01F103F1F4
:1033A800750402E00333A3420BD013F8012C8242C8
:1033B800F8D11A780A42F5D001205DF8044B70471D
:1033C800704700205DF8044B704700BF8151030827
:1033D80030B40A4D002305F12C0401E0272B0AD054
:1033E80003EB43020133A15C8142F7D12A4430BC8C
:1033F80092F82E007047002030BC704754510308E3
:10340800024B01461868FCF7FDBE00BFA825002046
:1034180038B5064D441E14F8011F286811B9BDE8D7
:103428003840A9E7FCF7EEFEF5E700BFA825002025
:1034380010B504460B48FFF7EBFF0B4B1868FFF776
:103448009BFF0A4B186813F0F9FD1DF073FA084B3F
:10345800084A24B1084909480860DA6010BDDA60F2
:10346800FCE700BF048E0308A8250020AC25002037
:1034780000ED00E00400FA05FC9F0020EFBEADDE81
:1034880038B5094D2868FFF777FF084B00241C70F2
:10349800074B1C60074B1C701DF0DAFB2046FFF73A
:1034A800C7FF2C6038BD00BFA8250020B425002028
:1034B800B0250020B02900200120B9E70048A7E77F
:1034C800E793030838B5064D002455F83400013455
:1034D800FFF79EFFFFF7F2FF282CF6D138BD00BF9B
:1034E800AC7D030808B5FFF793FFBDE80840E5E7A2
:1034F800024A136823EA000010607047B85B002096
:103508002DE9F341056906460F467DBBD0F80080DA
:10351800C8F30A0323B30023D6F8008001932DF0E3
:103528000DFC042819D1224C236943F001032361BF
:10353800BBB2A8F800302DF001FC04282ED108F108
:1035480002030193019B3F0C1F802DF0F7FB2369B9
:10355800042823F00103236125D06FF0010505E05D
:103568002DF0ECFB042805D04FF0FF35284602B0BB
:10357800BDE8F0810E4C236943F002032361C4F8CF
:103588001480236943F0400323612DF0D7FB23699E
:10359800042823F002032361BDD0E5E7236923F063
:1035A80001032361D9E7336804333360DEE700BFE2
:1035B80000200240F8B504460D468E180027B54293
:1035C80001D12069F8BDE368591CE160234415F86E
:1035D800012B1A720429F2D1A1682046FFF790FF47
:1035E800C4E90370EBE730B402681146531C03606A
:1035F80011F8024B0160D31C517803609378151DB4
:1036080005601B0443EA0123D078234343EA0060A2
:1036180030BC70470368591C1A46016012F8021B37
:103628000260587841EA0020704703685A1C02601B
:103638001878704738B504460068154631F00FFD14
:1036480022682A44226038BD036810B40A0A5C1C48
:1036580004601A7003685A1C026019705DF8044B04
:10366800704703685A1C026010B4197003680A0A8C
:103678005C1C04601A7003680A0C5C1C04601A70F5
:103688000368090E5A1C026019705DF8044B7047F4
:1036980003685A1C026019700368090A5A1C026000
:1036A8001970704710EE103AC3F3160242F07E52BA
:1036B80007EE102ADFED167ADFED164A9FED165A4F
:1036C800DFED165A9FED166ADFED163ADFED166A42
:1036D8009FED164AE7EE274ADB1507EE903AA4EE6F
:1036E800875AF8EEE77AE5EE075A67EEA37AA5EE71
:1036F800876AB5EEC00AE6EE077AF1EE10FAD4BF93
:10370800B0EE440AB0EE660A37EE800A704700BF92
:10371800DACDFE3CB9D593BE5CB8903FAA841DC0F3
:1037280022E061401872313F07F1B3C2000080FF08
:10373800DFED1D3ADFED1D7A9FED1D7A9FED1D4AE5
:10374800DFED1D4A9FED1D5ADFED1D5A9FED1D6AE5
:10375800DFED1D6AE0EE237AF4EEC77AF1EE10FA97
:1037680088BFF0EE477AF4EEC47AF1EE10FAB8BFEB
:10377800F0EE447AFDEEE77A17EE903AC3F31602BC
:1037880042F07E5207EE102AA7EE245A03F0FF43B8
:1037980000EE103AE5EE075AA5EE876AE6EE076AEC
:1037A80026EE800A704700BF3BAA384B00007E4EC9
:1037B8000000FF4E00000000ED185E3C81900FBB3A
:1037C800AF9D2A3EB2D19F3EE886023F07EE901A8F
:1037D800F8EE677A9FED837A27EE800A20EE070AD3
:1037E800FDEEC07A17EE903A2033402B00F281802C
:1037F800DFED7D7AB4EEE70AF1EE10FA40F3E680E9
:10380800B0EE407A9FED796ADFED796A01E0B0EEBB
:10381800677AB4EEE67AF1EE10FA77EE467AF6DCDD
:103828009FED747AF4EEC77AF1EE10FA40F1D18088
:103838009FED6E6ADFED706A01E0F0EE477AF4EE14
:10384800E67AF1EE10FA37EE867AF6D4DFED6B7A87
:10385800B4EEE77AF1EE10FA40F3A780DFED627A72
:1038680037EEC77A27EE076ADFED655ADFED657A2E
:10387800DFED656A9FED655AE6EE257A67EE065A32
:10388800E6EE276AF7EE007AA5EEA67AF0EE675A1A
:10389800E7EE055AE7EE457A87EEA55ADFED577A47
:1038A80030EE277AFDEEC76A16EE903A2033402BA9
:1038B80024D99FED577AF6EE006AB7EE006AF7EE64
:1038C800004AC4EEA57A0023836143610362C361A1
:1038D80080ED045A67EEA66A27EE866A27EE877A95
:1038E800C0ED006AC0ED026A80ED016A80ED037ADE
:1038F8007047B7EE005AF0EE455ACFE7B4EEE70A44
:10390800F1EE10FA6BDD9FED396ADFED396A01E0FF
:10391800B0EE677AB4EEE67AF1EE10FA77EE467A10
:10392800F6DC9FED347AF4EEC77AF1EE10FA53D54F
:103938009FED2E6ADFED306A01E0F0EE477AF4EE93
:10394800E67AF1EE10FA37EE867AF6D4DFED2B7AC6
:10395800B4EEE77AF1EE10FA33DCDFED2E7AB4EE4E
:10396800E77AF1EE10FA44BFDFED227A37EEC77A34
:1039780027EE076ADFED224ADFED226ADFED227AC1
:10398800E6EE246A67EE064AE6EE267AB7EE006AA5
:10399800A4EEA77AF6EE006A36EE476AF8EE007AE9
:1039A80027EE277A66EE266A89E7DFED1A7AB4EE03
:1039B800E77AF1EE10FA44BFDFED0E7A37EEC77AF8
:1039C80050E7DFED097A37EEC77AD1E7F0EE407AB3
:1039D80026E7B0EE677A39E7B0EE677AB6E7F0EE39
:1039E800477A9EE727D4D236DB0F4940DB0FC94020
:1039F800E4CB1641DB0F49C0E4CB16C1DB0FC93F4E
:103A080092E741B99730083C15A82ABEF304353F20
:103A180000000000DB0FC9BFDFED2E7AB4EEE70A25
:103A2800F1EE10FA4ADDDFED2C6A9FED2C7A01E009
:103A3800B0EE670AB4EEC70AF1EE10FA70EE667AD5
:103A4800F6DC9FED277AF4EEC77AF1EE10FA3ED550
:103A5800DFED216A9FED237A01E0F0EE407AF4EE83
:103A6800C77AF1EE10FA37EEA60AF6D4DFED1E7A21
:103A7800B4EEE70AF1EE10FA14DDDFED167A37EE50
:103A8800C00A60EE006A9FED196A9FED197ADFEDB2
:103A9800197AA6EE867A20EE266AE6EE877AA6EEF0
:103AA800270A7047DFED147AB4EEE70AF1EE10FA50
:103AB80044BFDFED0B7A37EEC00AE2E79FED087AE4
:103AC800F0EE407AF4EEC77AF1EE10FAC0D4B0EE18
:103AD800670ACBE7DB0F4940DB0FC940E4CB16414F
:103AE800DB0F49C0E4CB16C1DB0FC93F92E741B9F0
:103AF8009730083C15A82ABEDB0FC9BF01212FF05B
:103B080009BF70B50D461446FDF736F90646A0B153
:103B1800FFF7F4FF40F634039842A8BF1846B0F503
:103B2800617FB8BF4FF461701923A0F5617090FBF5
:103B3800F3F028702378013323703046FDF71CF921
:103B48000646A0B1FFF7DAFF40F634039842A8BF53
:103B58001846B0F5617FB8BF4FF461701923A0F51E
:103B6800617090FBF3F0687023780133237030465E
:103B780070BD02B370B48E1803E0121B14D1B142A9
:103B880015D010F8012BA2F14103192B11F8013BB4
:103B9800A3F1410598BF2032192D03F12004ECD977
:103BA800D21A01D1002BEAD1104670BC704700220E
:103BB800104670BC70471046704770B504460846FA
:103BC8000D4630F0B1FB064602E014F8013F43B160
:103BD800324629462046FFF7CCFF0028F5D120467B
:103BE80070BD1C46204670BD4FF0FF32FFF7C1BFC5
:103BF800A0F16103192B98BF20387047A0F1410349
:103C0800192B98BF20307047202805D00938042880
:103C18008CBF0020012070470120704770B5044612
:103C280008460E4630F080FB3146054602462046DF
:103C3800FFF79FFF68B9635D1846FFF7E5FF00B916
:103C480033B901352C44204601340378202BFAD0AF
:103C580070BD0020FCE7613819288CBF00200120C6
:103C68007047413819288CBF002001207047303830
:103C780009288CBF002001207047A0F13003092BD0
:103C880007D920F02000413819288CBF00200120D6
:103C9800704701207047F8B5064615460846B6FB3A
:103CA800F2F434B905FB14640B4B1B5D00F8013BBF
:103CB800F8BDB4FBF2F75FB905FB1747064B05FBE8
:103CC8001464DA5D00F8012B1B5D00F8013BF8BDB8
:103CD8003846FFF7E0FFEFE700980308B5EEC00AA3
:103CE800DFED677A674AF1EE10FACCBF30EE270AAB
:103CF80030EE670ADFED647A20EE270A2DE9F047F7
:103D0800FDEEC07A88B017EE904A84EAE476002384
:103D1800A6EBE476CDE902330493A2FB06325FEA10
:103D2800D208054641D105AF58483946554BA3FB43
:103D38000623DB0803EB8303A6EB4303002CC35CD9
:103D48000B704FF00002ACBF20232D234A70384679
:103D58008DF8083030F0E8FA0128394639D00228C1
:103D680042D0032805BF302302A802A88DF80930E5
:103D780031F0A1F902A830F0D7FA0338C4B22246CC
:103D880002A9284631F0CDF900232B55284630F0FA
:103D9800CBFA2E22431C02A92A542144E81831F0F8
:103DA800A6F9284608B0BDE8F087394BA3FB0623DF
:103DB8005B0922D105AF35483946324AA2FB0832A1
:103DC800D20802EB8202A8EB4202835C01F8013BB5
:103DD800ACE7302302A88DF809308DF80A308DF849
:103DE8000B3031F068F9C5E7302302A88DF80930A7
:103DF8008DF80A3031F05FF9BCE7264AA2FB0612BB
:103E08005FEA92190ED105AF204839461D4AA2FB38
:103E180003C2D20802EB8202A3EB4203C35C01F89F
:103E2800013BCAE71C4AA2FB06125FEA523A0ED1CE
:103E380005AF16483946134AA2FB09C2D20802EB5D
:103E48008202A9EB4202825C01F8012BDEE71348EB
:103E5800B6FBF0F058B905AF39460A20BAFBF0F2C4
:103E680000FB12A20948825C01F8012BE3E705AFC9
:103E780039460A220193FFF70EFF019B0146ECE742
:103E88006F12033ACDCCCCCC00007A4400980308DA
:103E98001F85EB51D34D62105917B7D1A086010089
:103EA80070B406688E4217D90139751E002311F8BF
:103EB800014F0822634013F0800F4FEA430318BFF5
:103EC80083F0D503013ADBB2F5D18D42EFD1721CF4
:103ED8000260337070BC7047721C0023026033703C
:103EE80070BC70470A44914215D010B40139541E71
:103EF80011F8012F0823504010F0800F4FEA4000BE
:103F080018BF80F0D500013BC0B2F5D1A142EFD176
:103F18005DF8044B704770474840082310F0800F45
:103F28004FEA400018BF80F0D500013BC0B2F5D180
:103F380070470A44914215D030B40139551E41F2F8
:103F4800210211F8014F082380EA042004044CBF21
:103F580082EA40004000013B80B2F7D18D42F0D1A7
:103F680030BC7047704770B502221449144C154E86
:103F78004FF6FF70FFF7DDFF22884AB1A518B5425A
:103F880019D2052A17D92146FFF7D3FF2C46F3E7A4
:103F980021460222FFF7CDFF0222A118FFF7C9FF31
:103FA800094BE41A094BA3F8644041F60F53C31AAE
:103FB8005842584170BD0020FCE700BF00F00308DC
:103FC80002F0030800000408FAEF0308300F00208D
:103FD8002DE9F043002489B006460D461F46A04649
:103FE80005E025290CD030460134A847039A531C14
:103FF800039311780029F4D1204609B0BDE8F08375
:10400800931CCDE903385078302842D0A0F1300312
:10401800DBB2092B4FF0000945D96C282AD0642857
:1040280073D019D9732858D063D9752840F0828085
:1040380007F1040C386805AB00220A216746FCF733
:10404800F3FA05AB049A009329464B463046FCF731
:104058003CFB039A0444CAE725283CD051D9582888
:104068006BD06328C2D139783046A8470437013469
:10407800039ABCE7039B5A1C03921B78642B52D00B
:1040880016D8252B27D064D9582B18D0632BEAD003
:10409800ADE7D31C03939078A0F13003DBB2092B72
:1040A8004FF00109B9D804AA03A92CF05CFEB4E7C3
:1040B800732B12D051D9752B2DD0782B97D1A3F112
:1040C8005802B2FA82F23868520905AB1021043757
:1040D800FCF7AAFAB5E7252185E73B68049A00931F
:1040E800294600233046FCF7F0FA04370444039AC3
:1040F8007DE76E287FF47AAF039A3B6804371C602B
:1041080075E700283FF478AF70E7386805A9FCF731
:1041180055FA043795E7386805AB00220A21FCF701
:1041280083FA04378DE73B1D386805A91F46FCF75D
:1041380045FA86E778287FF459AFA0F15802B2FA19
:1041480082F23868520905AB1021FCF76DFA043782
:1041580077E7002B3FF450AF49E76E2BCDD046E709
:1041680010B5064C0B46024605492068FFF730FF9C
:104178002068BDE81040FFF7FFB800BFA825002061
:104188007F03000838B504460D460848FFF740F994
:1041980029462046FFF7E4FF0548FFF739F9054BA4
:1041A8001B7813B1044B01221A7038BD108E030816
:1041B8001B8E030804270020052700200FB407B52D
:1041C80004A951F8040B0191FFF7DCFFFFF776F91A
:1041D80003B05DF804EB04B0704738B50F4D2B7889
:1041E80063B10F4C23784BB10E48FFF7E7FF0E4839
:1041F800FFF7E4FF00232B70237038BD0B4B93F8B7
:1042080066203AB1986E10F0BDFE0020BDE8384037
:10421800FFF70EB910F0D4FDF7E700BF0427002020
:10422800052700201F8E0308568E0308300F002034
:1042380038B5052215490446FFF79BFC58B9144ABE
:1042480013781BB901211170124A13701248BDE886
:104258003840FFF747B9032210492046FFF789FC89
:1042680080B90B4C0B4D227842B12B7833B10C48F6
:10427800FFF7A4FF002323702B7038BD0948FFF710
:1042880031F9F7E70848BDE8384097E7129703087F
:104298000427002005270020748E03087897030858
:1042A8001F8E03088A8E03089E8E0308004885E740
:1042B800AD8E03080FB407B504A951F8040B01919A
:1042C800FFF760FF03B05DF804EB04B070470FB46C
:1042D80007B504A951F8040B0191FFF741FFFFF757
:1042E800EDF803B05DF804EB04B0704710B5104C5E
:1042F80003461846FBF7A6FF58B10E4B0E4893F934
:1043080001104B1C0ABF0D4BC9B25978BDE81040CB
:10431800DDE71846FFF7F2FB052804D8C0B227F0FE
:1043280003F92346E5E705210548BDE8104045E7C0
:10433800E993030800000020B98E03085C290020D7
:10434800C88E030810B5104C03461846FBF77AFFD1
:1043580058B10E4B0E4893F900104B1C0ABF0D4B79
:10436800C9B21978BDE81040B1E71846FFF7C6FB97
:10437800022804D8C0B212F04EF92346E5E702211C
:104388000548BDE8104019E7E9930308000000203C
:10439800BD8E03085C290020CD8E030838B50D4674
:1043A800FFF7ACFB0C4B19788842044605D201464E
:1043B8000A48FFF78CFF204638BD2DB1FF2803D1EE
:1043C8000748FFF784FFF6E701390648FFF7F6FECE
:1043D8004FF0FF34EFE700BF51270020E88E0308B5
:1043E800F98E03080C8F03082DE9F3410346FBF708
:1043F80029FF044620B1FFF759FF02B0BDE8F0815C
:1044080001AA2B49DFF8A880184630F083FD27461B
:10441800054626467DB9022CEDD1A7F57A73B3F58A
:104428007A7F20D94FF4FA634FF47A7221492248EF
:10443800FFF7C4FEE1E74CB1012C0FD001AA4146B9
:10444800002030F067FD01340546E3E701212846E6
:10445800FFF7A4FF431C0646F0D1CEE72846FFF736
:104468004DFB0746EAE7B8B21CF0F0F9FF2EBCEEA8
:10447800C00A124B0BD1124AF8EE407A1278AA42BF
:1044880012DC10EE101A0F48FFF721FFB5E7F8EE1F
:10449800407A03EB860310EE102A31460A48C3ED32
:1044A800007AFFF714FFA8E7E3EC017A0135E6E7A5
:1044B80032960308B2970308328F0308E8340020C5
:1044C80051270020588F03084B8F03082DE9F34725
:1044D8000346FBF7B7FE044610B1FFF7E7FE25E0F9
:1044E80001AA2A49DFF8B480DFF8B490DFF8B4A055
:1044F800184630F00FFD26460546274655B9244B89
:104508003246A1B218682EF06DFD78B92148FFF740
:1045180055FE0BE06FB1012FDFD1B31E594259414F
:104528002846FFF73BFF421C044622D102B0BDE8F3
:10453800F08728462FF0F8FE4146064602462846F0
:10454800FFF717FBA0B1324649462846FFF711FB93
:10455800B8B1324651462846FFF70BFB98B13246B0
:104568000D492846FFF705FB0028B6D1032600E0D1
:104578003E4601AA0549002030F0CCFC013705462B
:10458800BCE70126F5E70226F3E700BF32960308E9
:10459800AC250020738F0308708F0308678F03080A
:1045A8006A8F03086D8F03082DE9F3470346FBF76D
:1045B80049FE044618B92B4A9278042A04D8FFF712
:1045C80075FE02B0BDE8F08701AA2749DFF8AC8084
:1045D800DFF8AC90DFF8ACA0184630F09BFC012760
:1045E800264640B9214B224A1B689B1A214A18BF0C
:1045F80001231370E5E766B90121FFF7CFFE431CDD
:104608000446DED001AA18490020013630F082FCA9
:10461800E7E7FFF773FA2F2805461ED8D7B126F02B
:10462800C1FC062D06D1052012F064FC5046FEF7A9
:1046380059FF09E0012012F05DFC0F490123EAB29D
:104648000978E0B226F064F829464846FFF73FFEAD
:104658000027D7E70628F0D1E8E72F214046FFF7E3
:10466800ADFDCFE7A85D002032960308C45D0020A9
:10467800199E0208986A002051270020B18F03086C
:10468800A08F0308918F03082DE9FF4107462FF0FB
:104698004BFE08283CD1002201AEB85CFFF7A8FA0F
:1046A800B0540132082AF8D10024DFF870808DF860
:1046B8000C40385DFFF79CFAC5B230552946404694
:1046C80030F008FD28B101342946301930F002FDD8
:1046D80020B1FFF7EBFD04B0BDE8F081082CE8D16C
:1046E8000D4930460BF078FD0B4C0C4800231A5D41
:1046F80004A90A44195C02F80C1C0133082BF6D1F2
:10470800002301A906488DF80C30FFF7E0FDE2E729
:104718000028E9D0DDE700BFE82D002090700308ED
:10472800D18F0308034B044A04491B6812680968BF
:104738000348CCE5B4F7FF1FB0F7FF1FACF7FF1F26
:10474800D88F0308F7B50646FBF77CFD054658B138
:10475800002401A920462EF091FA0134FFF7F2FF58
:10476800122CF6D103B0F0BD3046FFF7C7F9C4B23A
:10477800112C61D8701CFCF7FFFA334D0746D0B9ED
:10478800324B13F814108A1E514251412F4B13F823
:104798001420154495F8A120002948D003EB4403C0
:1047A80019205B7840F2EE2100FB031321462848CC
:1047B800FFF78DFDD6E705F1A1060178304630F008
:1047C80089FC58B1032C8CBF03230023801B2B4486
:1047D80053FA80F090F8A560032E02D1FFF766FD2A
:1047E800C0E73846FCF7C8FAF0B1022EF6D1FFF759
:1047F80085F940F6CA0280B29042144BA8BF104611
:1048080040F2EE22904203EB4403B8BF1046A0F2F8
:10481800EE20192290FBF2F05870B31E594259410C
:104828000A4B03F81460B1E7022EF6D1D6E7214609
:104838000848FFF74CFD95E711232A460649074823
:10484800FFF7BCFC8EE700BF54510308402000204E
:10485800EC8F0308FC8F030809900308328F0308C4
:104868000FB407B504A951F8040B0191FFF778FCC0
:1048780003B05DF804EB04B070472DE9F843044633
:104888002FF052FD024680B320461949FFF771F90F
:10489800044650BBFEF712FE1648174D174E184F28
:1048A800DFF86480FEF71EFE2B7D072194FBF1F1F3
:1048B800C1EBC10206EB8303A21A0132013138466B
:1048C800D3F8AC90FFF7CCFF6A7D49464AB10D4852
:1048D800FFF7FDFC01340C2C05F11C05E4D1BDE803
:1048E800F8834046FFF7F3FCF4E7BDE8F843DDE45E
:1048F8001190030816900308B00B002054510308C8
:104908001B9003082D9003089791030838B50B4BAB
:1049180003EBC0040D4694F8A021094803EB820379
:10492800D3F8AC10FFF79CFF94F8A63123B1691CAB
:104938000448BDE8384093E738BD00BF5451030828
:1049480098910308B59403087FB50B4B04930B4B60
:1049580003930B4B02930B4B01930B4B00930B4AA6
:104968000B4B0C490C48FFF77BFF0C48082107B09C
:104978005DF804EBABE400BF789003087D90030872
:1049880087900308909003089C90030834900308CC
:1049980063290020429003084D900308A290030861
:1049A8002DE9F04F93B00025DFF8A4B1DFF8C0A1DE
:1049B800DFF8C0910795A84608A9E8B226F040FF9D
:1049C8009DF82830002B6DD0022D40F09A809DED87
:1049D800117AB5EE407AF1EE10FA00F08980DFED39
:1049E800586AC6EE877AFDEEE77AF8EEE77AFDEECA
:1049F800E77A17EE906A99F80040089B012C79D95C
:104A080096FBF4F41A4602214E48FFF729FF0D9A47
:104A1800002A00F08B8041F2883002FB04004FF43A
:104A28007A73B0FBF3F00F9B002B00F0818041F20A
:104A3800883103FB04114FF47A7CB1FBFCF1062D9D
:104A480003D0079F0F44804407979BF803C0BCF12D
:104A5800000F6FD04FF47A7C0E9FB7FBFCFCCDF8AB
:104A680010C04FF00A0C91FBFCFE0CFB1E11CDE9A7
:104A780002E190FBFCF10CFB1100CDE9001021468E
:104A88003148FFF724FC022D08D199F80030012B9A
:104A980004D9324609992D48FFF719FC0AEB85130A
:104AA80000229A630135182D86D1294BDB78E3B1B2
:104AB800284B29481968294B1A684FF47A73B1FBB7
:104AC800F3F3274952090968FFF701FC0798079B88
:104AD8000A2293FBF2F302FB130798FBF2F100970B
:104AE80002FB11821F48FFF7F2FB13B0BDE8F08FFD
:104AF800002680E7099A1C480221FFF7B1FE3446D8
:104B080085E7109C5CB107EE904ADFED0D6AF8EE80
:104B1800677A86EEA77AFDEEC77A17EE904A089A6A
:104B280008482946FFF79CFE002670E710467AE7FA
:104B3800194684E721460D48FFF7C9FBA3E700BFE4
:104B480000247449BA900308DC9003080091030814
:104B58005C290020E83E002010910308E03E002078
:104B6800EC3E002030910308C99003080C9103081B
:104B780098000020881E00202DE9F047214FDFF81B
:104B8800A480DFF88490DFF8A0A0054628462FF01F
:104B9800CBFB064658B91C4B1C481A781C4B03EB38
:104BA8008203BDE8F047D3F87412FFF790BB0246C2
:104BB80039462846FEF7DDFF78B91648164C174DDA
:104BC800FEF726FC54F8041F19B12846FFF748FEE3
:104BD800F8E7BDE8F047FEF771BC002458F8241048
:104BE80021B90F48BDE8F047FFF7E8BA3246284632
:104BF800FEF7BFFF01340028F0D189F80040554680
:104C0800C4E700BF68910308D41B00205E91030825
:104C1800545103086D910308C8530308979103087A
:104C280078910308CC530308E99303082DE9F84F5A
:104C380080460E4617462FF077FB0446F0B94048E9
:104C4800404FDFF82081FFF70BFE0C2520460EF0C1
:104C58007FF83368184205D005FB0473404699680D
:104C6800FFF7FEFD0134182CF0D1336813B936482C
:104C7800FEF7CEFBBDE8F84FFEF720BC02463349ED
:104C88004046FEF776FF0546B0B931482D4EDFF8AD
:104C9800C880FEF7BDFB2C460C2520460EF058F8C0
:104CA800384205D005FB046340469968FFF7D8FDF4
:104CB8000134192CF1D1DDE798F800302D2B03BF12
:104CC80008F1010804F1FF34012500254FF0000A1E
:104CD80047F0807B1B4B0C2202FB0A324046D2F87D
:104CE800089022464946FEF744FFF8B950460EF0B0
:104CF8002FF81BEA000F19D075B1BAF1180F1CBFB5
:104D08003768074337601348FEF782FB4946124865
:104D1800BDE8F84FFFF7DBBABAF1180F1CBF3568CA
:104D2800854335600D48FEF773FBEFE70AF1010A8A
:104D3800BAF1190FCED10A48BDE8F84FFFF73EBACD
:104D480085910308508203088F910308689103082E
:104D58006D9103089B91030897910308A491030898
:104D680078910308969103086FF07F4200495DE748
:104D78003037002040F20222004957E73837002038
:104D88002DE9F047424D07462FF0CEFA414B95F8F2
:104D980066801E680446B8F1000F15D0D5F86890F3
:104DA800C4B93D483D4D3E4FFEF732FB012655F84C
:104DB800241059B106FA04F313EA090F02D0384651
:104DC800FFF74EFD0134F2E7B146E9E7BDE8F047E9
:104DD800FEF774BB224633493846FEF7CAFE78B957
:104DE8003148324C324DFEF713FB54F8041F0029AA
:104DF800ECD00B78002BF8D02846FFF731FDF4E70C
:104E0800B8F1000F03D10123AE6685F866303B7810
:104E1800DFF888A02D2B03BF013704F1FF344FF0D2
:104E280001094FF000094FF000085AF8286026B928
:104E38002048BDE8F047FFF7C1B922463146384659
:104E4800FEF797FE08BB012303FA08F2110604D502
:104E58001948BDE8F047FEF745BB9305F8D4AB6E9B
:104E6800B9F1000F0BD023EA02031448AB66FEF732
:104E7800CFFA31460E48BDE8F047FFF728BA13438A
:104E88000F48AB66FEF7C4FAF3E708F10108CCE770
:104E9800300F0020B85B0020AC9103083854030899
:104EA800B6910308689103086D9103083454030808
:104EB8009791030878910308BA9103089B91030816
:104EC800A491030830B52C4885B0FEF7A1FA15F077
:104ED800B3FC28B9294805B0BDE83040FEF702BB4D
:104EE80015F0A0FC08B92648F5E7264B1B68DB69D6
:104EF80098470028F7D015F08DFC0268037D81796A
:104F08000446407C0290207C0190608A0090520800
:104F18001D48FFF7A5FCE51D0C3415F8010BFEF73D
:104F28006FFAAC42F9D1194C1948FEF771FA627858
:104F3800032A06D8DFE802F00E0E0A021548FEF72B
:104F480067FA05B0BDE83040FEF7B8BA1248FEF778
:104F58005FFAF6E71148FEF75BFA41F2D453E35CD7
:104F6800022B05D0032BECD10D48FEF751FAE8E7E8
:104F78000C48FEF74DFAE4E7C6910308D091030800
:104F8800DE910308602A0020ED910308BC6D002023
:104F98001B9203082B920308319203083E920308E0
:104FA8005D92030844920308F0B5482285B047494A
:104FB8004748FFF755FCFEF781FA464A46494748F5
:104FC800FFF74EFCFEF77AFA454B464A4648D21A96
:104FD800464BB3F86410FFF77AF9454B4548196812
:104FE8004FF47A73B1FBF3F1FFF73AFCFEF766FA78
:104FF8004149D1F89C20002A58D007EE902ADFEDCD
:105008003F6AB8EEE77AC6EE877AFDEEE77ACDED2D
:10501800037A3B4B1B885BB107EE903ADFED376AAA
:10502800F8EE677A86EEA77AFDEEC77A17EE903A21
:10503800C96959B107EE901ADFED306AF8EEE77AE0
:1050480086EEA77AFDEEC77A17EE901A2D482E4EF7
:1050580000882E4F6428CDE900310146039B2C4877
:10506800A8BF6421FFF733F92A4B2B491A782B4B39
:1050780009882B4803EB82032A4AD3F86033127855
:10508800FFF725F9284B29481988FFF720F9002050
:10509800FFF718FF2648FEF7BBF9264B1C680125C9
:1050A80034B905B0BDE8F040FEF708BA0392B0E79E
:1050B80094FAA4F3B3FA83F305FA03F256F823102B
:1050C800384624EA0204FFF7CBFBE9E76F920308AE
:1050D800749203080020001000080000879203085B
:1050E80000F0030800000408AB920308300F00200A
:1050F800A44E0020D592030898000020002474498B
:10510800BA390020EE360020347F0308979103084F
:10511800EF9203086C2900205029002054510308FD
:10512800359303086D290020602400205C93030850
:105138006B9303080C2B00202DE9F04F87B0034632
:10514800FBF780F8074620B1FFF7B0F807B0BDE8D5
:10515800F08F05AA7F49DFF840A2DFF840B2184671
:105168002FF0D8FEB84681463D463E464FF0FF3404
:10517800B9F1000F28D178482146FFF771FB774A2B
:1051880060B24B4602EBC30191F90610814200F070
:10519800BD800133042BF5D1002E14BFB0464FF467
:1051A8006148002D08BF03250023EDB20293CDE925
:1051B80000851A4619460DF03DFC0446002838D1F2
:1051C8006748FEF78FF9C1E7B8F1030F07D8DFE8A2
:1051D80008F0020F14244846FEF790FC044605AA7E
:1051E8005C4900202FF096FE08F101088146BFE7D0
:1051F8004846FEF783FC0646F1E751464846FEF767
:10520800DCFC08B145F0010559464846FEF7D5FCD7
:105218000028E4D045F00205E1E748462FF084F87D
:10522800504902464846FEF7A4FC002808BF01275B
:10523800D5E7414676B94C48FFF712FB4B48FEF7D5
:1052480051F94B4B186803681B6A33B12246494928
:10525800984702E04848FFF703FB484B484949484C
:10526800434D002F18BF1946FFF731F837B12868AA
:105278000368DB6913B10022434998472D68284623
:1052880011F0DCFE204611F0D9FE00210846FCF79B
:105298003FFC00210120FCF73BFC2846FBF799FE68
:1052A800A0B101210020FCF733FC2846FBF78BFE58
:1052B80006462046FBF78AFE0028FAD031462046EB
:1052C800FBF78AFE00210846FCF722FC2046FBF784
:1052D80080FE0028E1D001210020FCF719FC2046BF
:1052E800FBF771FE06462846FBF770FE0028FAD049
:1052F80031462846FBF770FE00210846FCF708FCFB
:10530800CBE7A1682148FFF7ABFA0EE052F833402B
:10531800002C3FF441AF002EF3D031461C48FFF774
:105328009FFA31462046FAF763FF5DB12179A94219
:1053380008D018482A46FFF793FA2368E9B29B6910
:1053480020469847E36A0BB10023E362002E84D11C
:1053580074E700BF329603089A930308186C00207C
:10536800A393030894930308B89303084694030887
:10537800AC250020F9010008D593030881930308A0
:10538800E993030869940308370200080D94030899
:10539800EA930308289403088E930308919303085B
:1053A8002DE9F041037903F06002202A2CD002D8BD
:1053B80052B1BDE8F081402A4AD0602AF9D1274885
:1053C800BDE8F041FEF783BF03F00703022B02D0CC
:1053D800042B09D07BB9B0F80720B0F80510204895
:1053E800BDE8F041FEF773BFD0F805101D48BDE8D1
:1053F800F041FEF76CBFB0F90720B0F90510184866
:10540800BDE8F041FEF763BF4679174D174805EB35
:10541800C605FDF7FDFF95F8787300240123A74220
:1054280003D8BDE8F041FEF749B8D5F8746356F8DB
:1054380024204FEA84084AB113B90D48FDF7E8FF64
:1054480056F808100B48FFF70BFA00230134E6E77B
:1054580041790948BDE8F041FEF739BFDE940308F9
:10546800A29403088C94030854510308B9940308C0
:10547800CA94030898910308CD9403082DE9F041D4
:105488001746027902F06003402B05460C462BD1E3
:105498000026554FDFF8708115E02B7903F00703DC
:1054A800022B15D0032B19D0012B14BFA15DA157D6
:1054B8003846FFF7D5F96B79013BB34202DD404628
:1054C800FDF7A6FF01366B79B342E6DCBDE8F08153
:1054D80034F816103846FFF7C3F9ECE734F916101C
:1054E8003846FFF7BDF9E6E702F00702042A6DD84F
:1054F800DFE802F0031F282A2D002478202B3ED055
:10550800602B4CD0002BE1D1B5F80560B5F80780C9
:1055180035482146FFF7A4F9A6424EDCA0454CDBEE
:10552800002FD3D0424631463048BDE8F041FFF75E
:1055380097B994F90040202B21D0602B2FD0002B55
:10554800C4D14BE02488D9E7B4F90040F3E72668D2
:10555800202B344613D0602B21D0002BB6D13146F6
:105568002348FFF77DF9D5F805108E4225D8002F7E
:10557800ACD02048BDE8F041FFF772B900246A7941
:105588001D4B03EBC20393F87823A24215DDD3F831
:10559800743353F82400BDE8F041FDF739BF6A7948
:1055A8001441E30704D51548BDE8F041FFF758B9A1
:1055B8001348BDE8F041FFF753B9FDF77FFF2246D6
:1055C80029681048BDE8F041FEF774BE202BD5D0FD
:1055D800602BEDD0002B7FF479AF1C46B5F9056040
:1055E800B5F9078094E700BFB69403080B96030843
:1055F8009F940308F894030854510308F39403088C
:10560800FE94030802950308F694030838B50D467E
:105618000446FBF7E1F82A4601462046BDE8384033
:105628002CE72DE9F74FDFF8C4B081468A460025FC
:10563800D8462B4B0D2418686C43FDF79DFE04EBF0
:105648000B031B7903F018034B4504D0B9F1000F85
:105658003ED1182B3CD10D2303FB05820093B2F8F1
:105668000900FBF7A2F8444407462046FAF7F2FD82
:10567800D7E901210646024401442046FAF722FEF2
:105688001AF0100F0246009B00D008BB03FB0583ED
:105698001AF0200F1B680FD072B9194611480093F1
:1056A8000192FFF7DDF87968019A31442046FFF747
:1056B800E5FEFDF703FF009B0B481946FFF7D0F8FE
:1056C800B968002231442046FFF7D8FEFDF7F6FE00
:1056D8000135B5F5B37FACD103B0BDE8F08F00BF9D
:1056E800A82500201C9503081D9503088058030869
:1056F800052838B50D460CD8064C60700648FEF7EC
:10570800F5FDFDF7DBFE29461020FFF78AFFFF2392
:10571800637038BD00000020E9930308022838B5FB
:105728000D460CD8064C20700648FEF70BFEFDF718
:10573800C5FE29460820FFF774FFFF23237038BDF4
:1057480000000020E99303080CB407B510F020000E
:105758000BD079B92320FDF753FE05A904980191D0
:10576800FEF7FEFCFDF7AAFE012003B05DF804EB8E
:1057780002B070470020F8E70CB4C30607B500D59F
:1057880061B905A904980191FEF7EAFCFDF796FEB8
:10579800012003B05DF804EB02B070470020F8E781
:1057A8002DE9F04F354C87B08046354A237860881C
:1057B80002EB8303D3F8AC90FAF7F7FFD0E901A323
:1057C8000493304B1B7813B9CDF810A09A4608F013
:1057D8004003DFF8BCB005930026A379002B08BF6F
:1057E80001239E4206DB284B08349C42DDD107B0DA
:1057F800BDE8F08F6279237906FB0323049A01360A
:10580800D55CBAF1000F11D1B5FA85F77F090DB350
:1058180005F00F032D0940350293CDE900654B468D
:105828005A4639464046FFF7A7FFD6E71AF803302D
:10583800EA1A57425741C3B103F00F021B0940331C
:105848000292CDE900635A464B4639464046FFF777
:105858007BFFDCE7059B002BBFD100964B460B4A2C
:1058680039464046FFF788FFB7E700964B46074A98
:1058780039464046FFF768FFC9E700BFF4520308FE
:1058880054510308300F0020CC5303083D950308FA
:10589800279503082DE9F04F87B005AA8C492FF00A
:1058A80039FB064628B94120FFF77AFF07B0BDE863
:1058B800F08F8849DFF86082FEF796F988BB864842
:1058C800864C874E874FFDF70DFE04F59875A37932
:1058D8002168A28808EB830301F13841B2FA82F209
:1058E800890A4131D3F8AC30C2F11F023046FEF7C5
:1058F800B7FFE17911B13846FEF7B2FF0834FDF77A
:10590800DDFDA542E3D1724905AA00202FF002FB74
:105918007549FEF769F90028C8D16E48FEF7ADFF52
:10592800C4E708F5D0770024B94617F8343008EBF7
:105938008303E500D3F8ACA050462EF0F5FC5146A1
:1059480002463046FEF715F938B101341B2CECD16C
:1059580031466648FEF732FCA8E705AA5C492FF0F5
:10596800D9FAA8440746FEF7C9F898F8A6310646BA
:10597800002B40F09880002800F39F80A944B9F8D4
:105988000200FAF712FF3D78002D00F08980F3B28B
:10599800019399F8046099F80530019AD0F80480C9
:1059A8005349384602FB0636FEF71EF960B908F877
:1059B800060018F80680B8F1000F16D14D48FDF71B
:1059C80091FD73E7012372E0602D8CBF613D413D7D
:1059D800072D65D8781CFEF791F80F2860D8013597
:1059E80040EA051508F80650E3E74046FBF7B0FC27
:1059F8008146002854D04FEA1813403302933E4F93
:105A080008F00F030026039300252EE07888FAF7A4
:105A1800CCFE7A793B7905FB03234268D15C41458A
:105A280022D1B44204D101998D421DD00021D15414
:105A3800DDE9021231485FFA85FB5FFA86FAFEF764
:105A48000FFF59465046FEF761FFB44209D12C4872
:105A5800FEF706FF50465946FEF758FF2948FEF75D
:105A6800FFFE2948FDF73EFD0135BB79002B08BF35
:105A780001239D42CADB01361B2E07F10807C3D15B
:105A8800D9F80010B9F80420204801F13841B2FAD9
:105A980082F2890AC2F11F024131FEF718FC05E7BC
:105AA800FEF704FC02E7002801DD9E4207DD012223
:105AB80017491848FEF782FBF8E6012882D105AAA3
:105AC800034900202FF026FA013E074656E700BF9B
