:020000040800F2
:1000000000200010694C03081D9E0208396B00088F
:10001000199E0208159E0208119E020800000000A9
:100020000000000000000000000000000D9E02081B
:10003000099E020800000000059E02085180000889
:10004000D14C0308D14C0308D14C0308D14C030810
:10005000D14C0308D14C0308191F000845200008A3
:1000600009200008CD1F0008911F0008D5340008A2
:10007000C5340008B5340008A534000895340008DC
:10008000813400086D340008D14C0308D14C0308BA
:100090003DA80208D14C0308D14C0308551F0008A5
:1000A000A9710008F9710008D14C030821720008F9
:1000B000E9710008D9710008D14C0308D14C03083C
:1000C000D14C0308D14C0308D14C0308D14C030890
:1000D000D14C0308D581000859810008DD80000853
:1000E000DD1E0008D14C0308F59D0208D14C030821
:1000F000B9710008D14C0308C9710008D14C03083C
:10010000000000000000000000000000D14C0308C7
:10011000D14C0308D14C03083520010819200108EF
:100120005934000845340008313400081D340008F3
:1001300009340008D14C0308000000000000000052
:10014000D14C0308D14C0308D14C03080000000037
:10015000000000000000000000000000000000009F
:100160000000000000000000D14C0308D14C03083F
:10017000D14C030800000000000000000000000057
:0801800000000000D14C03084F
:100188000A4B30B503F1140493F900205D78072A6F
:10019800C8BF143A811804330D7313F8025C8554F0
:1001A80013F8012C0A76A342EED130BD3C65030852
:1001B80003682DE9F041DF691FB13B46BDE8F04116
:1001C8001847002A164611DD04460D460E4400E085
:1001D80023689B68204698470028F9D0236815F8BB
:1001E800011B1B6820469847AE42F1D1BDE8F0815B
:1001F80000232822027043708370C3707047232342
:1002080003702423C370252383712D2343702E2369
:1002180003712F23C371704730B4836813B11C680E
:100228009B882385436840F2E93401E0002C37D0ED
:100238001D89013C15F0020FA4B2F7D0197303F120
:100248000C0540F2E93101E000294BD01C89013945
:1002580014F0010F89B2F7D02B78436840F2E931E6
:1002680001E000292DD01C89013914F0020F89B250
:10027800F7D01A7303F10C0440F2E93201E0002AC6
:1002880041D01989013A11F0010F92B2F7D02378C1
:10029800836813B11A689B889361012030BC70474A
:1002A80021498B4204D0A1F578418B42D6D1012453
:1002B8001E4901EB04146189013189B261816189A8
:1002C800CCE7194A934204D0A2F578429342DFD191
:1002D8000121164B03EB01114B8901339BB24B8172
:1002E8004B89D5E7104CA34203D011498B42B4D1B6
:1002F80001210E4B03EB01114B8901339BB24B815A
:100308004B894368AAE708498B4203D0084A9342BD
:10031800BED10122054B03EB0212538901339BB274
:1003280053815389B4E700BF003001409068002032
:1003380000380040002870B51EDB0928044620DD7F
:10034800012303EB83035B00B0FBF3F2092AF8D81F
:100358007BB10E4EB4FBF3F00928CCBF57223022F4
:10036800A6FB03E5024403FB1044EB0801F8012B4C
:10037800F0D100230B7070BD2D230B70404201316A
:10038800DBE7303001F8010BF3E700BFCDCCCCCC74
:10039800884230B44FF001042ED301FB04F4B0FBC3
:1003A800F4F58D42F9D284B1AAB901E0B0FBF4F5B5
:1003B800092DCCBF572230222A4404FB150003F82C
:1003C800012BB4FBF1F4002CF0D100221A7030BCE0
:1003D8007047B0FBF4F5092DCCBF372230222A44F0
:1003E80004FB150003F8012BB4FBF1F4002CF0D149
:1003F80000221A7030BC70470546002AEBD1D7E7B7
:1004080003685A1C0260197070472DE9F047089C70
:100418002578002B804689460CBF4FF0200A4FF004
:10042800300A661C35B3002A29DD334601E002464E
:1004380098B113F8011B501E0029F8D1971E60B11E
:100448003D46013D51464046C8476B1C002BF8DC31
:10045800257827EAE770013055B1041B2946404644
:10046800C847301916F8015B002DF7D1BDE8F087B1
:10047800BDE8F087002A04DC2846BDE8F0870020A4
:10048800EBE7571EDCE783684268D0ED037A00EBA0
:1004980083010133934281ED040A836004BF002382
:1004A800836000EB830393ED047A036870EE277A88
:1004B8009A42C0ED037A77EEC77AC0ED037A0CDA78
:1004C800013307EE103AF8EEC76AB7EE007A87EE06
:1004D800A60A036030EE070A704707EE102AB8EE46
:1004E800C77A87EE870A704790ED057A90ED004A43
:1004F800D0ED066AD0ED014AD0ED047A90ED035AAA
:10050800D0ED025AA4EE007AB0EE406AB0EE470A87
:10051800B0EE667AA6EE247A67EEC07AA0EE457A47
:10052800E6EE257A80ED057AC0ED067A7047D0EDC3
:10053800057A90ED013AD0ED003AD0ED064A90EDFB
:10054800024A90ED077A90ED035A90ED086AD0EDD3
:10055800045AC0ED067AF0EE406A27EE830AC0ED31
:10056800056AA3EEA60A80ED087AA4EE240AA5EE91
:10057800470AA5EEC60A80ED070A7047D0ED007A53
:1005880090ED017A30EE670AE7EE007AB0EE670A7E
:10059800C0ED007A704770470A44914214D030B4D5
:1005A8000139551E41F2210211F8014F082380EA52
:1005B800042004044CBF82EA40004000013B80B2A2
:1005C800F7D18D42F0D130BC70472DE9F04FDFF8FC
:1005D80020B2DFF820E2BBF80020DEF80060BBF9AB
:1005E8000430BBF90250BBF90A80C2EB261404FBA5
:1005F80004F424135200C2EBE60203FB04F305FBE8
:1006080002F29B1303EBE223B3F5FA364FEAE375E4
:1006180089B045F1FF373246A6FB0645CDE90245CC
:1006280002FB07F205EB4202CDE90467029EBBF923
:100638000840039208FB02FC4FEAE87906FB09CC64
:100648003A46A8FB0689049ECBF81830E51704FB48
:1006580002F206FB0522A4FB0667E14417444FEAB1
:10066800182242EA096200924FEA292201923D03C8
:10067800DDE90078340345EA16553F19BBF80660F2
:10068800069048EB05083C1C48F5004503EB83023F
:10069800A4FB068906FB0599803213124FEA690606
:1006A8004FEAE977079356EA07038A4600F09280F3
:1006B800DDE90489BBF90E20DEF80440BBF910001F
:1006C8004946C4F5801ED317DDE9024502FB01F156
:1006D80008FB0311A2FB08230B444FEA43492B46AE
:1006E800C11700FB03F304FB0133A0FB0401BBF9B2
:1006F8000C401944E30001937346DC170023009370
:1007080049EAD2394FEA4248DDE9002310EB0800F4
:1007180041EB0901E50712184FEACE744B4145EA4F
:100728005E05A41A65EB0305221945EB05031219AA
:100738006B4199019001801841EA926159418B00FF
:10074800820043EA9073101943EB05018B00820085
:1007580043EA907310460019194632463B466941F0
:1007680034F0AAF8BBF916204C13450B45EAC145ED
:1007780002FB04F6D31705FB0366A2FB05233344EB
:10078800BBF9146002FB04F405FB034406FB01FEFD
:10079800A2FB0523F717234400FB07EE540EA6FB24
:1007A8000067774444EAC3144FEAD64800194FEA71
:1007B800636548EA473869414FEAE74918EB00089A
:1007C800BBF9124049EB01094FEA182646EA0966C7
:1007D80020013618069B0BB1360A1E60BAF1000FCD
:1007E80002D0079BCAF8003009B0BDE8F08F00BFFF
:1007F800D03E0020681F0020704770474FF4006308
:10080800838270474FF400638382704750F8043C3A
:10081800012280F84520103803B11847704770B599
:10082800044682B01430E56D06236A464321A84782
:10083800B0B19DF804009DF800609DF801109DF886
:1008480002509DF803209DF8053041EA062143EA4D
:10085800002342EA0522A187E287A4F8403001205C
:1008680002B070BD70B5044682B00830656A0623D0
:100878006A463B21A847A8B19DF804009DF800608E
:100888009DF801109DF802509DF803209DF8053051
:1008980041EA062143EA002342EA0522E182228353
:1008A8006383012002B070BD70B40468037B2268C2
:1008B800022101FA03F31A4213D042690A495C2063
:1008C80000FB02124FF6FE7650685289C568006830
:1008D800296831402960C168D24392B20A40C26097
:1008E800636070BC704700BF604D002030B40A4B95
:1008F8001D7875B1094B002003EBC5051A68998866
:100908005062D4682143D160083323F8040CAB4209
:10091800F4D130BC704700BF405000204450002044
:1009280010B40268047B11680223A340194209D05D
:100938000649406800240C7001684FF6FE74214097
:10094800016053605DF8044B704700BF7F4300208F
:10095800F0B4334C00EB800004EB80046468002C96
:100968005BD0304E49004FF42040CDB2B060A16951
:10097800090444D460682C4F45F08071384041F434
:10098800903101434FF420406160B06003E0411EA4
:10099800002838D00846A1698F07F8D54FF42040C1
:1009A800A262B06002E0421E68B31046A269110656
:1009B800F9D562681C4945F0007545F480350A4050
:1009C80015434FF420406560B06002E0421ED0B18C
:1009D8001046A2699207F9D5A362A3694FF4204093
:1009E8009B06B06005D4431E68B11846A3699B06F0
:1009F800F9D52023B060E3610120F0BC7047411EA7
:100A080008B10846B3E7094A138801339BB24FF08F
:100A1800FF31B1601380F0BC70472046F0BC7047CE
:100A280068680020681F0020009800FCBC37002080
:100A3800134600200A4668218AE710B50446C06CB0
:100A4800A160036823F001030360A37986B013F063
:100A58000402009141D04FF4805213F00203019236
:100A680044D102934FF4806362790393D1074FF026
:100A780000030493059345BF0423049308230C2320
:100A88006946920748BF049324F0CCFC6079E36C74
:100A9800A17900F00202002A15BF4FF440324FF44A
:100AA80080324FF40034002410F0010F586808BF5A
:100AB8002246CC074CBF024320EA02025A609A68D9
:100AC80009074CBF42F0080222F008029A601A682F
:100AD80042F001021A6006B010BD13F00203019241
:100AE80007D04FF4005113460291BDE74FF400536D
:100AF800B7E70293B8E70023262203600270272293
:100B08008270012243600271837170472DE9F341BD
:100B1800056906460F467DBBD0F80080C8F30A0376
:100B280023B30023D6F80080019323F08BFC04281C
:100B380019D1224C236943F001032361BBB2A8F801
:100B4800003023F07FFC04282ED108F10203019322
:100B5800019B3F0C1F8023F075FC2369042823F0B8
:100B68000103236125D06FF0010505E023F06AFC3D
:100B7800042805D04FF0FF35284602B0BDE8F081C3
:100B88000E4C236943F002032361C4F814802369DF
:100B980043F04003236123F055FC2369042823F024
:100BA80002032361BDD0E5E7236923F00103236134
:100BB800D9E7336804333360DEE700BF0020024022
:100BC800F8B504460D468E180027B54201D12069B4
:100BD800F8BDE368591CE160234415F8012B1A722B
:100BE8000429F2D1A1682046FFF790FFE760206151
:100BF800EBE708B507F0E4F8034B1B69C01AC0F52A
:100C0800FA5020EAE07008BD681F0020F8B50668B1
:100C18000978124D1746304641F0800225211C46BE
:100C28006B73FFF7F9FA2EF0D1FC3A4626213046CD
:100C3800FFF7F2FA2EF0CAFC04F00F0242F080022D
:100C480027213046FFF7E8FA2EF0C0FC07F0B8F885
:100C5800012328612B731846F8BD00BF681F0020C8
:100C680070B582B004466946143027F0D5FFB0B19C
:100C78009DF805009DF801609DF802109DF803504D
:100C88009DF804209DF8063041EA062143EA002336
:100C980042EA0522A187E287A4F84030012002B089
:100CA80070BD10B490E80600047B40690223A3409D
:100CB8004B6013685DF8044B4FF6FE710B401360F0
:100CC80007F0C2BA03685B6A03B118477047036844
:100CD8001B6A03B11847704703682DE9F041DF69C3
:100CE8001FB13B46BDE8F0411847002A164611DD02
:100CF80004460D460E4400E023689B68204698474A
:100D08000028F9D0236815F8011B1B68204698476E
:100D1800AE42F1D1BDE8F08103689B6918470368CA
:100D2800DB68184703689B68184703685B681847BF
:100D380003681B681847014B1868F9E7246C002002
:100D4800054B53F8203033B11A689B88918A0B42BF
:100D580018BF1B0493617047486B002003682DE996
:100D6800F04F03F13845644EAD0A0124755D05F076
:100D78001F066D09022D04FA06F400F0A280032D67
:100D880000F0A480012D52D08088B0FA80F4C4F11C
:100D98001F04A4B2E50803EB850504F007042E6AD6
:100DA800A4000F27A74026EA07062E622E6A01F044
:100DB800030702FA04F47A1E3443012AC1F3810CB2
:100DC800C1F300182C62C1F3411135D9C60700F1EF
:100DD8009780850700F1A380440700F1B1800207DE
:100DE80000F1BF80C60600F1CD80850600F1DB80EA
:100DF800440600F1E980020600F1F780C60500F11B
:100E08000581850500F11381440500F12181020562
:100E180000F12F81C60400F13D81850400F14B816A
:100E2800440400F15981020455D4BDE8F08F334DD4
:100E38006E6934436C61A7E7002422464FF0010E27
:100E48004FF0030904E00132102A04F10204ECD047
:100E58000EFA02F636EA0005F5D1D3F808A009FA29
:100E680004F5ED430AEA050AC3F808A0D3F808B068
:100E78000CFA04FA4AEA0B0AC3F808A0B3F804A06B
:100E88001FFA8AFA2AEA06069E80B3F804A008FA2E
:100E980002F646EA0A06B6B29E801E682E401E601A
:100EA800D3F800A007FA04F646EA0A061E60D3F84B
:100EB8000CA001FA04F605EA0A0A46EA0A05DD600A
:100EC800C1E70E4DAE693443AC615DE70B4DEE6989
:100ED8003443EC6158E71A6822F040421A601A68F5
:100EE80042EA87771F60DA6822F0404242EA81715D
:100EF800D960BDE8F08F00BF2888030800100240C1
:100F08001A6822F003021A601A683A431A60DA680B
:100F180022F003020A438507DA607FF55DAF1A689D
:100F280022F00C021A601A6842EA87021A60DA682C
:100F380022F00C0242EA81024407DA607FF54FAFE3
:100F48001A6822F030021A601A6842EA07121A6018
:100F5800DA6822F0300242EA0112DA6002077FF50D
:100F680041AF1A6822F0C0021A601A6842EA871272
:100F78001A60DA6822F0C00242EA8112C606DA6014
:100F88007FF533AF1A6822F440721A601A6842EA91
:100F980007221A60DA6822F4407242EA01228506C2
:100FA800DA607FF525AF1A6822F440621A601A6881
:100FB80042EA87221A60DA6822F4406242EA812211
:100FC8004406DA607FF517AF1A6822F440521A60B7
:100FD8001A6842EA07321A60DA6822F4405242EA92
:100FE8000132DA6002067FF509AF1A6822F440423E
:100FF8001A601A6842EA87321A60DA6822F44042B4
:1010080042EA8132C605DA607FF5FBAE1A6822F43F
:1010180040321A601A6842EA07421A60DA6822F413
:10102800403242EA01428505DA607FF5EDAE1A6882
:1010380022F440221A601A6842EA87421A60DA6883
:1010480022F4402242EA81424405DA607FF5DFAEAD
:101058001A6822F440121A601A6842EA07521A60A3
:10106800DA6822F4401242EA0152DA6002057FF59A
:10107800D1AE1A6822F440021A601A6842EA87520E
:101088001A60DA6822F4400242EA8152C604DA6041
:101098007FF5C3AE1A6822F040721A601A6842EAF5
:1010A80007621A60DA6822F0407242EA0162850437
:1010B800DA607FF5B5AE1A6822F040621A601A68E5
:1010C80042EA87621A60DA6822F0406242EA816284
:1010D8004404DA607FF5A7AE1A6822F040521A601D
:1010E8001A6842EA07721A60DA6822F0405242EA45
:1010F8000172DA6097E6036803F138422DE9F04F90
:10110800920A584DAA5C02F01F0552090124022ACE
:1011180004FA05F400F08C80032A00F08E80012A7E
:101128003CD001F003077A1E012AC1F3810CC1F3F8
:1011380000188088C1F3411135D9C60700F196809F
:10114800850700F1A280440700F1B080020700F192
:10115800BE80C60600F1CC80850600F1DA80440620
:1011680000F1E880020600F1F680C60500F104816E
:10117800850500F11281440500F12081020500F186
:101188002E81C60400F13C81850400F14A814404A3
:1011980000F15881020455D4BDE8F08F324A5569F0
:1011A8002C435461BDE7002422464FF0010E4FF056
:1011B800030904E00132102A04F10204ECD00EFA0B
:1011C80002F636EA0005F5D1D3F808A009FA04F5C5
:1011D800ED430AEA050AC3F808A0D3F808B00CFAE8
:1011E80004FA4AEA0B0AC3F808A0B3F804A01FFAE5
:1011F8008AFA2AEA06069E80B3F804A008FA02F6DC
:1012080046EA0A06B6B29E801E682E401E60D3F8D3
:1012180000A007FA04F646EA0A061E60D3F80CA0F6
:1012280001FA04F605EA0A0A46EA0A05DD60C1E79A
:101238000D4A95692C43946173E70B4AD5692C4391
:10124800D4616EE71A6822F040421A601A6842EACE
:1012580087771F60DA6822F0404242EA8171D960DC
:10126800BDE8F08F28880308001002401A6822F0B1
:1012780003021A601A683A431A60DA6822F0030215
:101288000A438507DA607FF55EAF1A6822F00C0220
:101298001A601A6842EA87021A60DA6822F00C02B9
:1012A80042EA81024407DA607FF550AF1A6822F0FB
:1012B80030021A601A6842EA07121A60DA6822F0E5
:1012C800300242EA0112DA6002077FF542AF1A687B
:1012D80022F0C0021A601A6842EA87121A60DA68B5
:1012E80022F0C00242EA8112C606DA607FF534AF06
:1012F8001A6822F440721A601A6842EA07221A60D1
:10130800DA6822F4407242EA01228506DA607FF543
:1013180026AF1A6822F440621A601A6842EA8722E5
:101328001A60DA6822F4406242EA81224406DA60EE
:101338007FF518AF1A6822F440521A601A6842EA18
:1013480007321A60DA6822F4405242EA0132DA605F
:1013580002067FF50AAF1A6822F440421A601A683A
:1013680042EA87321A60DA6822F4404242EA81325D
:10137800C605DA607FF5FCAE1A6822F440321A60BE
:101388001A6842EA07421A60DA6822F4403242EAEE
:1013980001428505DA607FF5EEAE1A6822F4402234
:1013A8001A601A6842EA87421A60DA6822F4402210
:1013B80042EA81424405DA607FF5E0AE1A6822F419
:1013C80040121A601A6842EA07521A60DA6822F470
:1013D800401242EA0152DA6002057FF5D2AE1A687D
:1013E80022F440021A601A6842EA87521A60DA68E0
:1013F80022F4400242EA8152C604DA607FF5C4AEA4
:101408001A6822F040721A601A6842EA07621A6083
:10141800DA6822F0407242EA01628504DA607FF5F8
:10142800B6AE1A6822F040621A601A6842EA876209
:101438001A60DA6822F0406242EA81624404DA60A3
:101448007FF5A8AE1A6822F040521A601A6842EA7C
:1014580007721A60DA6822F0405242EA0172DA60D2
:1014680098E610B50409013C052C17D80C4B33F845
:10147800142000F00F0042FA00F313F001030DD01E
:10148800012303FA00F00138104033F065FA054AE9
:10149800054B125D104403EBC00010BD002010BDC9
:1014A800B8850308C4850308DC5A00202DE9F04FED
:1014B8004A484B4B4B4C4FF090414FF0010A4FF0CC
:1014C80002094FF004084FF0080C4FF0100E2027C7
:1014D8004026802530F8022B12F0010F03D0196046
:1014E800A3F804A0083312F0020F03D01960A3F880
:1014F8000490083312F0040F03D01960A3F8048095
:10150800083312F0080F03D01960A3F804C0083399
:1015180012F0100F03D01960A3F804E0083312F09A
:10152800200F02D019609F80083312F0400F02D0BC
:1015380019609E80083312F0800F02D019609D80D8
:10154800083312F4807F05D04FF4807B1960A3F82C
:1015580004B0083312F4007F05D04FF4007B196003
:10156800A3F804B0083312F4806F05D04FF4806BF1
:101578001960A3F804B0083312F4006F05D04FF4D3
:10158800006B1960A3F804B0083312F4805F05D02B
:101598004FF4805B1960A3F804B0083312F4005FBD
:1015A80005D04FF4005B1960A3F804B0083312F4B7
:1015B800804F05D04FF4804B1960A3F804B008336E
:1015C800D20B04D04FF4004219609A80083301F519
:1015D8008061A1427FF47EAFBDE8F08FB885030833
:1015E800DC5A002000180048002867D003682DE95D
:1015F800F04F03F138445C4EA40A0125345D04F031
:101608001F066409022C05FA06F558D0032C00F0D1
:10161800A580012C58D08088B0FA80F4C4F11F044A
:10162800A4B2E50803EB850504F007042E6AA400BC
:101638000F27A74026EA07062E622E6A01F0030745
:10164800A2407C1E3243012CC1F3810CC1F3001867
:101658002A62C1F341113CD9C60700F18980850788
:1016680000F19580440700F1A380020700F1B180E2
:10167800C60600F1BF80850600F1CD80440600F162
:10168800DB80020600F1E980C60500F1F7808505D8
:1016980000F10581440500F11381020500F1218163
:1016A800C60400F12F81850400F13D81440400F156
:1016B8004B81020400F15981BDE8F08F70472B4C33
:1016C800A6693543A561A6E7284C66693543656177
:1016D800A1E7002422464FF0010E4FF0030904E071
:1016E8000132102A04F10204E6D00EFA02F636EAB4
:1016F8000005F5D1D3F808A009FA04F5ED430AEA84
:10170800050AC3F808A0D3F808B00CFA04FA4AEAA4
:101718000B0AC3F808A0B3F804A01FFA8AFA2AEA49
:1017280006069E80B3F804A008FA02F646EA0A06FE
:10173800B6B29E801E682E401E60D3F800A007FA3D
:1017480004F646EA0A061E60D3F80CA001FA04F66D
:1017580005EA0A0A46EA0A05DD60C1E7034CE669BC
:101768003543E56157E700BF2888030800100240A9
:101778001A6822F003021A601A683A431A60DA6893
:1017880022F003020A438507DA607FF56BAF1A6817
:1017980022F00C021A601A6842EA87021A60DA68B4
:1017A80022F00C0242EA81024407DA607FF55DAF5D
:1017B8001A6822F030021A601A6842EA07121A60A0
:1017C800DA6822F0300242EA0112DA6002077FF595
:1017D8004FAF1A6822F0C0021A601A6842EA8712EC
:1017E8001A60DA6822F0C00242EA8112C606DA609C
:1017F8007FF541AF1A6822F440721A601A6842EA0B
:1018080007221A60DA6822F4407242EA0122850649
:10181800DA607FF533AF1A6822F440621A601A68FA
:1018280042EA87221A60DA6822F4406242EA812298
:101838004406DA607FF525AF1A6822F440521A6030
:101848001A6842EA07321A60DA6822F4405242EA19
:101858000132DA6002067FF517AF1A6822F44042B7
:101868001A601A6842EA87321A60DA6822F440423B
:1018780042EA8132C605DA607FF509AF1A6822F4B8
:1018880040321A601A6842EA07421A60DA6822F49B
:10189800403242EA01428505DA607FF5FBAE1A68FC
:1018A80022F440221A601A6842EA87421A60DA680B
:1018B80022F4402242EA81424405DA607FF5EDAE27
:1018C8001A6822F440121A601A6842EA07521A602B
:1018D800DA6822F4401242EA0152DA6002057FF522
:1018E800DFAE1A6822F440021A601A6842EA875288
:1018F8001A60DA6822F4400242EA8152C604DA60C9
:101908007FF5D1AE1A6822F040721A601A6842EA6E
:1019180007621A60DA6822F0407242EA01628504BE
:10192800DA607FF5C3AE1A6822F040621A601A685E
:1019380042EA87621A60DA6822F0406242EA81620B
:101948004404DA607FF5B5AE1A6822F040521A6096
:101958001A6842EA07721A60DA6822F0405242EACC
:101968000172DA6002047FF5A7AE1A6822F04042DD
:101978001A601A6842EA87771F60DA6822F04042E4
:1019880042EA8171D960BDE8F08F002852D003681F
:1019980003F138422DE9F04F920A514DAA5C02F04A
:1019A8001F0552090124022A04FA05F443D0032A28
:1019B80000F09080012A43D001F003077A1E012A23
:1019C800C1F3810CC1F300188088C1F341113CD9DF
:1019D800C60700F18980850700F19580440700F16A
:1019E800A380020700F1B180C60600F1BF8085061A
:1019F80000F1CD80440600F1DB80020600F1E980A9
:101A0800C60500F1F780850500F10581440500F160
:101A18001381020500F12181C60400F12F8185049C
:101A280000F13D81440400F14B81020400F1598129
:101A3800BDE8F08F70472B4A95692C439461BBE74A
:101A4800284A55692C435461B6E7002422464FF0D2
:101A5800010E4FF0030904E00132102A04F10204D8
:101A6800E6D00EFA02F636EA0005F5D1D3F808A05A
:101A780009FA04F5ED430AEA050AC3F808A0D3F801
:101A880008B00CFA04FA4AEA0B0AC3F808A0B3F83B
:101A980004A01FFA8AFA2AEA06069E80B3F804A070
:101AA80008FA02F646EA0A06B6B29E801E682E407A
:101AB8001E60D3F800A007FA04F646EA0A061E607C
:101AC800D3F80CA001FA04F605EA0A0A46EA0A0560
:101AD800DD60C1E7034AD5692C43D4616CE700BFD8
:101AE80028880308001002401A6822F003021A60CE
:101AF8001A683A431A60DA6822F003020A43850733
:101B0800DA607FF56BAF1A6822F00C021A601A6867
:101B180042EA87021A60DA6822F00C0242EA81027D
:101B28004407DA607FF55DAF1A6822F030021A6068
:101B38001A6842EA07121A60DA6822F0300242EAAA
:101B48000112DA6002077FF54FAF1A6822F0C0026F
:101B58001A601A6842EA87121A60DA6822F0C0022C
:101B680042EA8112C606DA607FF541AF1A6822F4AC
:101B780040721A601A6842EA07221A60DA6822F488
:101B8800407242EA01228506DA607FF533AF1A68AF
:101B980022F440621A601A6842EA87221A60DA68F8
:101BA80022F4406242EA81224406DA607FF525AFDA
:101BB8001A6822F440521A601A6842EA07321A6018
:101BC800DA6822F4405242EA0132DA6002067FF50E
:101BD80017AF1A6822F440421A601A6842EA87323C
:101BE8001A60DA6822F4404242EA8132C605DA60B5
:101BF8007FF509AF1A6822F440321A601A6842EA7F
:101C080007421A60DA6822F4403242EA0142850546
:101C1800DA607FF5FBAE1A6822F440221A601A686F
:101C280042EA87421A60DA6822F4402242EA814294
:101C38004405DA607FF5EDAE1A6822F440121A60A6
:101C48001A6842EA07521A60DA6822F4401242EA35
:101C58000152DA6002057FF5DFAE1A6822F440020D
:101C68001A601A6842EA87521A60DA6822F4400257
:101C780042EA8152C604DA607FF5D1AE1A6822F0D2
:101C880040721A601A6842EA07621A60DA6822F03B
:101C9800407242EA01628504DA607FF5C3AE1A68D1
:101CA80022F040621A601A6842EA87621A60DA68AB
:101CB80022F0406242EA81624404DA607FF5B5AE00
:101CC8001A6822F040521A601A6842EA07721A60CB
:101CD800DA6822F0405242EA0172DA6002047FF5C3
:101CE800A7AE1A6822F040421A601A6842EA87775B
:101CF8001F60DA6822F0404242EA8171D960BDE88B
:101D0800F08F10B1036882881A85704710B1036894
:101D180082889A61704738B100298388026814BFA5
:101D2800002110218B409361704710B40A4B0B4A75
:101D38001C7801238340234052F8200029B9B3FAC4
:101D480083F149095DF8044BE5E7191C18BF012127
:101D58005DF8044BDFE700BF446B0020486B0020B0
:101D680030B1036882881B8A1A4214BF0120002000
:101D7800704738B5044690F8590000285AD104F144
:101D88001405236E80226B2128469847642006F0AC
:101D9800BDF8236E0722682128469847642006F07C
:101DA800B5F8236E00226B2128469847642006F078
:101DB800ADF8236E01226B21284698470F2006F0C4
:101DC800A5F894F85320236E042A34BF18221A2247
:101DD8001B21284698470F2006F098F8236E1822F2
:101DE8001C21284698470F2006F090F8236E94F897
:101DF80052201A21284698470F2006F087F8236EAC
:101E080094F85420192128469847642006F07EF853
:101E1800236E10223721284698470F2006F076F8BF
:101E28002846236E0122382198470F20BDE8384004
:101E380006F06CB8FFF715FB0546FFF791FF014662
:101E480000289CD1D5B12023E871AB712846FFF753
:101E58009CFD21460F4B41F8103F284626F07CFE9A
:101E6800AB88B3FA83F3C3F11F035A1C87D001224E
:101E78009A4009490B6813430B6080E72946FFF72E
:101E880084FD2146034B41F8103F284626F064FEA6
:101E98000122EEE7150800080004014010B50446C9
:101EA80080692DF0FFFF012005F0D6FF2046FFF7DF
:101EB80060FF10226A2104F11400FEF7ADF96420D6
:101EC80006F024F8A0692DF0DBFF0120BDE81040E2
:101ED80005F0C2BF2DE9F0410B4E346873691C4010
:101EE8000FD0DFF828800127B4FA84F3C3F11F0369
:101EF80007FA03F558F8230003689847AC4375615F
:101F0800F2D1BDE8F08100BF00040140A0550020D7
:101F18002DE9F0410B4E346873691C400FD0DFF88F
:101F280028800127B4FA84F3C3F11F0307FA03F5E5
:101F380058F8230003689847AC437561F2D1BDE8AF
:101F4800F08100BF00040140A05500202DE9F041B8
:101F58000B4E346873691C400FD0DFF828800127C6
:101F6800B4FA84F3C3F11F0307FA03F558F8230002
:101F780003689847AC437561F2D1BDE8F08100BFB2
:101F880000040140A05500202DE9F0410B4E3468B3
:101F980073691C400FD0DFF828800127B4FA84F356
:101FA800C3F11F0307FA03F558F82300036898479D
:101FB800AC437561F2D1BDE8F08100BF0004014077
:101FC800A05500202DE9F0410B4E346873691C4080
:101FD8000FD0DFF828800127B4FA84F3C3F11F0378
:101FE80007FA03F558F8230003689847AC4375616E
:101FF800F2D1BDE8F08100BF00040140A0550020E7
:102008002DE9F0410B4E346873691C400FD0DFF89E
:1020180028800127B4FA84F3C3F11F0307FA03F5F4
:1020280058F8230003689847AC437561F2D1BDE8BE
:10203800F08100BF00040140A05500202DE9F041C7
:102048000B4E346873691C400FD0DFF828800127D5
:10205800B4FA84F3C3F11F0307FA03F558F8230011
:1020680003689847AC437561F2D1BDE8F08100BFC1
:1020780000040140A0550020084A094808B59369A2
:1020880043F0010393610021402234F09EF9054B8F
:102098004FF0FF321A60C3F8032008BD0010024059
:1020A800A0550020E05500202DE9F04104461846CF
:1020B8000D461646984631F035FF2768E6722844E3
:1020C800A07229467D69434632462046AC46BDE8A3
:1020D800F0416047036810B504461B6898472368B9
:1020E80020469B689847A37B0133A37310BD10B5A6
:1020F800036804469B689847FF2301226373227391
:1021080010BD08B5FFF7ADF938B12D228271002254
:10211800C2712021BDE8084037E408BDF0B48489C5
:102128004FF6FF764FF47A743BB3002937D00F7817
:10213800013101E0B44219D00589013C15F00205CE
:10214800A4B2F7D007734FF47A7402E0BCB2B44279
:102158000CD0058915F0010504F1FF37F6D0057B91
:10216800EDB20AB115700132013BDDE70D4B984223
:1021780007D0A3F57843984202D00120F0BC7047FD
:102188000125094B03EB05156B8901339BB26B8164
:10219800688980B2003018BF0120F0BC7047FF2763
:1021A800CAE700BF003001409068002070B50546BE
:1021B800806810B104688088208541F080016868D3
:1021C80040F2E93400E0F4B10689013C16F0020F50
:1021D800A4B2F8D0017300F10C0640F2E93100E036
:1021E80011B30489013914F0010F89B2F8D031789C
:1021F80068680021FFF792FFAB6813B11A689B88E3
:102208009361012070BD1149884204D0A1F578413D
:102218008842EED101240E4901EB04146189013191
:1022280089B261816189E4E7084CA04203D0094979
:102238008842DDD10121064800EB011148890130AF
:1022480080B2488149896868D3E700BF00300140FF
:10225800906800200038004070B50C4C237B054680
:102268000E4653B90568637B002121733246284620
:102278004921FFF79BFF012070BDFEF7BAFC2D68CE
:102288000028F0D005F0E8FDEDE700BF681F00204A
:10229800F8B505015A4C5B4B625961199A4204EB37
:1022A800050704BF01230B730646387A2DF0DCF9C5
:1022B8003B7A03F01F015B090122022B02FA01F2AB
:1022C80078D0032B71D0012B67D0631901361879A8
:1022D800FFF7C7F8F6B2074610B11223C67183712B
:1022E80063195879FFF7BDF810B11323C6718371CC
:1022F80063199879FFF7B5F810B11423C671837183
:1023080066190E21F2793846FFF76EF97079FFF7F2
:10231800A8F8F2790E21FFF767F9B079FFF7A1F86D
:10232800F2790E21FFF760F96359374A934251D089
:10233800344A934259D0354A934240D02C44227BA8
:10234800002A2FD1012002249A8822F480521204F4
:10235800120C9A80998889B241F4805199801A8820
:1023680002F4415242F44572024322431A809A8889
:1023780022F470621204120C42F4E0629A809A8B82
:1023880022F400621204120C07219A8319821A8817
:1023980092B242F040021A80F8BD1D4B996A0A4376
:1023A8009A6292E700200446CEE7194B19690A435E
:1023B8001A618AE7164BD9680A43DA6085E702F59D
:1023C800EA32116941F400411161116921F40041B7
:1023D8001161B3E702F56042D16841F48051D160E0
:1023E800D16821F48051D160A8E702F5EC32116977
:1023F80041F480411161116921F4804111619DE727
:10240800906800200038004000300140003C004047
:102418000010024030B40478012C06D0022C0BD1F5
:1024280001F07F0130BCFDF7F7BE054690F90400C6
:10243800431C01D0022802DD002030BC704713463F
:102448000A46697930BCFEF783BA3122F421E1E704
:10245800427A02B9704710B504460368406804F12F
:102468000A0198470023637210BD437A5A1C03443B
:10247800D2B242729972037A934200D802B9704775
:1024880010B504460368406804F10A019847002320
:10249800637210BD30B40B4D002305F1140101E047
:1024A800272B0BD011F8132082424FEA430403F183
:1024B8000103F5D12C44607D30BC7047002030BC4E
:1024C800704700BF3C65030870B5448806460D4652
:1024D800C4F30B0422460021284633F076FF336903
:1024E800094A934209D3094A934206D2224628460A
:1024F8001946BDE8704032F0E9BD23B121462846AF
:10250800BDE87040184770BDDCCA0308C4CB030897
:10251800064B07498B4202D30023184670471A8896
:10252800C2F30B029042F8D01433F3E768C60308ED
:10253800DCCA0308024A136823EA000010607047E7
:10254800B0630020F8B5174D2B78A52B28D16B78F0
:10255800BE2B25D1022229464FF6FF70FEF71CF844
:10256800114FAC1C22884AB1A618BE4218D2052ABF
:1025780016D92146FEF710F83446F3E72146022221
:10258800FEF70AF80222A118FEF706F80634074BF0
:10259800641B1C8041F60F53C31A58425841F8BDBA
:1025A8000020F8BD00F0030800000408BE37002032
:1025B8002DE9F04FDFF848914C4F8BB00326A7EB7D
:1025C80009071822002104A833F0FFFE484BCDF874
:1025D800109005971A69120604D5464A5A6002F106
:1025E80088325A6001228DF824203422DA60424B66
:1025F800424C1B88ADF800300222694604A8FEF759
:10260800DFFA022269464FF6FF70FDF7C5FFDFF8D3
:10261800F4A080464FF0000B544536D30AAC002591
:1026280024F8245D0222214604A8FEF7C9FA0222F2
:1026380021464046FDF7B0FF40BAC043ADF8080058
:10264800022202A904A8FEF7BBFA079860B106ABFC
:10265800C0F104022946184433F0B7FE069904A8CD
:10266800FEF754FA079508909DF82430089A23B18C
:102678001F490B6943F080030B61013E2DD0002AEE
:102688009FD1FFF75FFF50B32CE065888DF80DB040
:10269800C5F30B05AB1DADF808302388C3F30B0257
:1026A800ADF80A201B0B062202A904A88DF80C30ED
:1026B800FEF786FA062202A94046FDF76DFF61681B
:1026C80080462A4604A8FEF77BFA616840462A46F7
:1026D800FDF762FF143480469EE7002AD1D005201A
:1026E80004F058FF0BB0BDE8F08F00BF00000408ED
:1026F80000200240230167459E65030868C6030859
:1027080000F00308DCCA03080378202B024600F116
:102718000100F9D0092BF7D02D2B2CD02B2B03BF80
:102728005378B7EE000A0246B7EE000AA3F130016B
:10273800C8B209289FED467A10D8F2EE046A07EE6F
:10274800901AF8EEE77A12F8013FE7EE267AA3F13D
:102758003001C8B20928B0EE677AF0D92E2B4CD0D8
:1027680003F0DF03452B0BD0F7EE007A67EE276AFC
:1027780020EE260A70475378BFEE000A0246D5E7D6
:1027880010B451782D2959D02B290ABF9178501CA3
:10279800901C0024A1F13003092B53D8002303EB2C
:1027A800830301EB430310F8011FA1F13002092A4A
:1027B800A3F13003F3D9B3F59A7F28BF4FF49A7386
:1027C800072B42D9DFED236A1A46F7EE007A083A5A
:1027D800072A67EEA67AFAD803F007032BB1F2EEC0
:1027E800046A013B67EEA67AFBD124B3C7EE276AD9
:1027F8005DF8044B20EE260A70475378A3F13001A8
:10280800C8B2092802F10102AAD8F2EE046AF0EE71
:10281800665A07EE901AF8EEE77A12F8013F87EE4B
:10282800A66AA3F13001C8B2092866EEA56A37EE98
:10283800067AEED994E767EE276AD9E7901C917873
:102848000124A7E7F7EE007ACFE7F7EE007AC5E7AD
:102858000000000020BCBE4CB5EEC00ADFED317AA6
:10286800F1EE10FACCBF30EE270A30EE670ADFED42
:102878002E7A20EE270A30B5FDEEC07A87B017EE23
:10288800904A054684EAE470002303A9A0EBE470AB
:102898000193009302932FF091FD002CACBF2023ED
:1028A8002D2303A88DF8003031F03CFB012803A943
:1028B80024D002282DD0032805BF30236846684657
:1028C8008DF8013033F0A7FD684631F02BFB033853
:1028D800C4B222466946284633F0FBFD00232B5537
:1028E800284631F01FFB2E22431C2A540DEB04010D
:1028F800E81833F0ADFD284607B030BD30236846F0
:102908008DF801308DF802308DF8033033F083FDF7
:10291800DAE7302368468DF801308DF8023033F05D
:102928007AFDD1E76F12033A00007A442DE9F041AD
:10293800064615460846B6FBF2F43CB905FB146496
:10294800124B1B5D00F8013BBDE8F081B4FBF2F7C8
:1029580067B90E4B05FB174705FB1464DA5D00F8F1
:10296800012B1B5D00F8013BBDE8F081B7FBF2F8D5
:10297800B8F1000F02D04046FFF7D8FF05FB1878E2
:10298800024B13F8082000F8012BE3E7B48F030883
:102998000368591C1A46016012F8021B0260587835
:1029A80041EA0020704703685A1C02601878704793
:1029B80038B504460068154632F088FB22682A4478
:1029C800226038BD036810B40A0A5C1C04601A70DF
:1029D80003685A1C026019705DF8044B704703685D
:1029E8005A1C026010B4197003680A0A5C1C04605F
:1029F8001A7003680A0C5C1C04601A700368090EDC
:102A08005A1C026019705DF8044B704703685A1C21
:102A1800026019700368090A5A1C0260197070472D
:102A28002DE9F047002488B080460F461E46A1468F
:102A380005AD531C0393117839B3252933D1931C61
:102A4800CDF810900393507830284ED04FF0000AFC
:102A5800A0F13003DBB2092B42D96C2819D06428C5
:102A680000F0938024D825281CD063D9582876D024
:102A780063281BD131784046B847039A531C039307
:102A88001178043601340029D7D1204608B0BDE8B2
:102A9800F087039B5A1C03921B78642B7CD02AD89E
:102AA800252B54D1252140460134B847039AC0E765
:102AB800732833D044D975284FD106F1040E3068F5
:102AC8002B4600220A217646FDF762FC049A0095FF
:102AD800534639464046FDF798FC039A0444A8E754
:102AE80004AA03A926F01EFEB7E7D31C0393907827
:102AF8004FF0010AACE7732B10D05BD9752B3AD095
:102B0800782B96D1A3F15802B2FA82F230685209B2
:102B18002B4610210436FDF73BFCD7E73368049AAF
:102B28000093394600234046FDF76FFC0436044401
:102B3800039A7EE70028B9D1204608B0BDE8F0879F
:102B48006E28B3D1039A336804361C6071E72AD91A
:102B5800582BD7D0632B8DD06BE77828A6D1A0F15E
:102B68005802B2FA82F2306852092B461021FDF75A
:102B78000FFC0436AAE706F1040E30682B46002243
:102B88000A217646FDF704FCA0E7331D3068294684
:102B98001E46FDF7CFFB99E7331D306829461E46D0
:102BA800FDF7C8FB92E7002B7FF443AF204608B03F
:102BB800BDE8F0876E2BC6D03BE70EB400B584B0F5
:102BC80005AB019053F8042B0649039301A8FFF7BE
:102BD80027FF019B00221A7004B05DF804EB03B0D4
:102BE800704700BF090400080FB430B583B006ABC6
:102BF8000B490C4853F8042B096800680193FFF748
:102C08000FFF094C0546206803685B699847002850
:102C1800F9D0284603B0BDE8304004B0704700BF83
:102C28008C2D0020902D0020246C0020DFED2B7AC5
:102C3800B4EEE70AF1EE10FA4ADDDFED296A9FEDFE
:102C4800297A01E0B0EE670AB4EEC70AF1EE10FA8D
:102C580070EE667AF6DC9FED247AF4EEC77AF1EE30
:102C680010FA38D5DFED1E6A9FED207A01E0F0EE0C
:102C7800407AF4EEC77AF1EE10FA37EEA60AF6D4E7
:102C8800DFED1B7AB4EEE70AF1EE10FA14DDDFEDA2
:102C9800137A37EEC00A60EE006A9FED166A9FED60
:102CA800167ADFED167AA6EE867A20EE266AE6EE2A
:102CB800877AA6EE270A7047DFED117AB4EEE70AA5
:102CC800F1EE10FA44BFDFED087A37EEC00AE2E70A
:102CD800F0EE407ABFE7B0EE670AD1E7DB0F494074
:102CE800DB0FC940E4CB1641DB0F49C0E4CB16C16A
:102CF800DB0FC93F92E741B99730083C15A82ABEB7
:102D0800DB0FC9BF80EAE073A3EBE0738B4205DBFE
:102D1800002801DD401A704702D170470020704733
:102D28000844704709B909E0194690FBF1F301FB23
:102D380013030846002BF7D1084670470146FBE706
:102D480007EE901AF8EE677A9FED837A27EE800AED
:102D580020EE070AFDEEC07A17EE903A2033402B9A
:102D680000F28C80DFED7D7AB4EEE70AF1EE10FA1E
:102D780040F3E880B0EE407A9FED796ADFED796A3A
:102D880001E0B0EE677AB4EEE67AF1EE10FA77EE8B
:102D9800467AF6DC9FED747AF4EEC77AF1EE10FA13
:102DA80040F1CD809FED6E6ADFED706A01E0F0EED4
:102DB800477AF4EEE67AF1EE10FA37EE867AF6D430
:102DC800DFED6B7AB4EEE77AF1EE10FA51DCDFED65
:102DD800697AB4EEE77AF1EE10FA44BFDFED627A71
:102DE80037EEC77A27EE076ADFED635ADFED637ABD
:102DF800DFED636A9FED635AE6EE257A67EE065AC1
:102E0800E6EE276AF7EE007AA5EEA67AF0EE675AA4
:102E1800E7EE055AE7EE457A87EEA55ADFED547AD4
:102E280030EE277AFDEEC76A16EE903A2033402B33
:102E380029D99FED557AF6EE006AB7EE006AF7EEEB
:102E4800004AC4EEA57A0023836143610362C3612B
:102E580080ED045A67EEA66A27EE866A27EE877A1F
:102E6800C0ED006AC0ED026A80ED016A80ED037A68
:102E78007047DFED3A7A37EEC77AB3E7B7EE005A14
:102E8800F0EE455ACAE7B4EEE70AF1EE10FA5FDD54
:102E98009FED336ADFED336A01E0B0EE677AB4EE96
:102EA800E67AF1EE10FA77EE467AF6DC9FED2E7AA6
:102EB800F4EEC77AF1EE10FA47D59FED296ADFEDF7
:102EC8002B6A01E0F0EE477AF4EEE67AF1EE10FABA
:102ED80037EE867AF6D4DFED267AB4EEE77AF1EEAD
:102EE80010FA27DCDFED237AB4EEE77AF1EE10FA78
:102EF80044BFDFED1D7A37EEC77A27EE076ADFEDAC
:102F08001E4ADFED1E6ADFED1E7AE6EE246A67EEE2
:102F1800064AE6EE267AB7EE006AA4EEA77AF6EE3F
:102F2800006A36EE476AF8EE007A27EE277A66EEF0
:102F3800266A84E7DFED097A37EEC77ADDE7B0EE77
:102F4800677A3DE7F0EE407A24E7B0EE677AC2E7A9
:102F5800F0EE477AAAE700BF27D4D236DB0F494004
:102F6800DB0FC940E4CB1641DB0F49C0E4CB16C1E7
:102F7800DB0FC93FDB0FC9BF92E741B99730083C67
:102F880015A82ABEF304353F0000008070B4066817
:102F98008E4217D90139751E002311F8014F0822F6
:102FA800634013F0800F4FEA430318BF83F0D50343
:102FB800013ADBB2F5D18D42EFD1721C0260337059
:102FC80070BC70470023F8E710B44C09012250F890
:102FD800243001F01F0102FA01F10B4340F82430BC
:102FE8005DF8044B70474B0901F01F0150F823208E
:102FF800012303FA01F1114214BF1846002070475B
:1030080070B50478032C03D0BDE87040FFF702BA0E
:1030180044680E4615462521027A2046FDF7FCF83D
:103028002CF0D4FA324626212046FDF7F5F82CF08C
:10303800CDFA2A4663212046FDF7EEF82CF0C6FAB1
:10304800812227212046FDF7E7F82CF0BFFA01205E
:1030580070BDF0B55A4B5B4A97B01968914200AF02
:1030680000F0A3805849594A00234FF47000C1F872
:1030780088003B607B60136843F48033136003E08F
:103088003B68B3F5A04F09D0136803F400337B60A5
:103098003B6801333B607B68002BF1D04B4B1B68CE
:1030A80013F4003318BF01237B607B68012B52D0D7
:1030B800454C464B464AE260464A596A11605A6A8C
:1030C80042F080725A625A6942F4FC025A61002541
:1030D800032207F10801012341F6FF764FF09040E3
:1030E800FD60BE603A73BB7322F0F8F94FF6FF73C8
:1030F80007F108013848BB6022F0F0F907F1080130
:103108003648374E22F0EAF907F10801354822F02F
:10311800E5F907F10801344822F0E0F907F1080160
:10312800324822F0DBF907F1080021F08BFFBB6879
:103138002F49304AA1FB03132F499B0CF0204FF075
:10314800070E5C370B60566084F823009560C2F860
:1031580000E0BD46F0BD294A1C4B122111605A6897
:103168005A605A685A605A6842F480625A605A68CB
:1031780022F47C125A605A6842F4E8125A601A68BB
:1031880042F080721A601A689201FCD559680F4A99
:1031980021F003015960596841F0020159605368F0
:1031A80003F00C03082BFAD182E700221A6062B6FA
:1031B800134B1B6883F30888124B1B689847FEE77C
:1031C800FC9F0020EFBEADDE00ED00E000100240E5
:1031D8000005FA05085100200004004800080048CE
:1031E8003F190100000C0048001000480014004876
:1031F80083DE1B4310E000E040680020002002400E
:1032080000D8FF1F04D8FF1F064A002351688142D7
:1032180002F11C0204D001330C2BF7D100207047B7
:10322800D8B270478800002070B50F4C0F4DC0EB26
:10323800C00004EB8004686926693043686182B085
:103248009209667BA1600025012101A863618DF8C0
:1032580004608DF805208DF806508DF8071021F0D0
:103268000DFE02B070BD00BF8800002000100240B3
:10327800074BC0EBC00030B403EB8000054C056978
:1032880063692B4363610176427630BC704700BFA7
:1032980088000020001002402DE9F04F554C54F8EA
:1032A800204083B0002C60D0656D1F469046524B7D
:1032B8006A68E264A160236004F15A014FF48073E4
:1032C80004F5AD726161A261E36023610646287E60
:1032D8002CF0CAF9E86858B1FFF796FF721CD2B211
:1032E8000C21FFF7C5FFE36CEA6822632433A3646B
:1032F800A86890B1FFF788FF721C8146D2B20B21F3
:10330800FFF7B6FF2346EA7E3C494846FFF78CFFA5
:10331800E36CAA6862632833636494F85900FEF783
:10332800A0F8814694F85800FEF79BF83A078246C1
:1033380095F819B01DD5B9F1000F1AD017F0110F73
:103348004FF00B0306F1010614BF4E213E2189F808
:10335800063089F807605A464846FEF745F9FB07E4
:1033680043D5236B6BB3636B5BB3204603B0BDE8F7
:10337800F08F17F0010F0CBF2E274E2718F0020F01
:103388000DD0B9F1000F0AD00B22731C89F8062062
:1033980089F8073048465A463946FEF725F918F0A5
:1033A800010FDED0BAF1000FDBD001360C238AF80A
:1033B80007605A4639468AF806305046FEF714F92F
:1033C800CFE72B7FAA7E8DF804209B0900210122DC
:1033D80001A88DF805308DF806108DF8072021F02A
:1033E8004DFD204603B0BDE8F08F4846FEF789FC46
:1033F800B7E700BF982D0020A0650308AB0C0008B4
:103408000348D0F83C3113B100F59A70184770475B
:10341800880000200348D0F8203113B100F58C70E3
:1034280018477047880000200348D0F804310BB1D2
:10343800FC301847704700BF880000200348D0F8C8
:10344800E8300BB1E0301847704700BF8800002013
:103458000348D0F8CC300BB1C4301847704700BFD0
:10346800880000200348D0F8B0300BB1A8301847C6
:10347800704700BF880000200348D0F894300BB193
:103488008C301847704700BF880000200248836FBF
:103498000BB1703018477047880000200248C36D90
:1034A8000BB1543018477047880000200248036C5D
:1034B8000BB1383018477047880000200248436A2B
:1034C8000BB11C30184770478800002002488368F9
:1034D80003B11847704700BF88000020F0B53E4C84
:1034E800059D00EB800004EB80046468002C71D01B
:1034F8003A4E49004FF42040CFB2B060A1690904A8
:1035080054D46068DFF8E0E047F4903100EA0E0038
:1035180001434FF420406160B06003E0411E002881
:1035280048D00846A1698907F8D54FF42040A2621F
:10353800B06003E0421E00283CD01046A269520643
:10354800F8D5274A6168DFF8A0E0B06042EA034294
:10355800174301EA0E0217436760C3B1013BDBB2B0
:1035680001332B44A0694FF4204210F0040002F10B
:10357800FF3207D1511C26D0A06910F0040002F1D7
:10358800FF32F7D0626A05F8012B9D42EAD14FF469
:103598002040B06002E0431E60B11846A3699B0654
:1035A800F9D52023B060E3610120F0BD411E08B1C8
:1035B8000846A3E70B4A138801339BB24FF0FF314B
:1035C8001380B160F0BD0749B2600B8801339BB22C
:1035D8000B80F0BD2046F0BD68680020681F002001
:1035E80000240002BC370020009800FC70B50D468E
:1035F8000178012982B0044632D0022936D11E460C
:10360800836845F0800113B118689B88038560685A
:1036180040F2E93301E0002B32D00589013B15F077
:10362800020F9BB2F7D0017300F10C0540F2E933A9
:1036380001E0002B34D00189013B11F0010F9BB24E
:10364800F7D02B78606833460021FEF767FDA36842
:10365800002B36D01A689B889361012002B070BD98
:1036680090F90400411C01D0022802DD002002B0BC
:1036780070BD617900922A46FFF730FF02B070BD35
:103688001149884203D0114B9842DCD101231049DB
:1036980001EB03135989013189B259815B89D2E75A
:1036A8000949884203D0094B9842CBD101230849E4
:1036B80001EB03135989013189B259815B8960682B
:1036C800C1E70120D3E700BF0030014000380040C7
:1036D800906800202DE9F0410578032D02D0BDE85F
:1036E800F04183E7D0F804801746027A0E4642F08C
:1036F8008002252140461D46FCF78EFD2BF066FF13
:10370800324626214046FCF787FD2BF05FFF05F087
:103718000F0242F0800227214046FCF77DFD2BF086
:1037280055FF042004F0F2FB72B649212B463A46B5
:103738004046FEF73BFD62B6BDE8F08130B500F1CA
:103748000C0483B00546002220460A21FFF758FCE6
:1037580020460F220A21FFF753FC01AA2046032323
:103768001021FFF7B7FF9DF804109DF805209DF87C
:1037780006308031803380326983AA83EB83204608
:1037880000220A21FFF73CFC0DF103022046012329
:103798000221FFF79FFF0DF10302012320460921B3
:1037A800FFF798FF204611220A21FFF729FC012084
:1037B80003B030BD2DE9F041037B84B0002B61D00C
:1037C800022B00F10C070D46044660D9032B59D192
:1037D800DFF8548198F81430012B6DD07DD3022B7B
:1037E80050D198F80C30002B48D102A904F11000F0
:1037F800FEF732FD0023064688F81430002E41D02B
:103808009DF80E80384611220A21FFF7F9FB18F0BF
:10381800080F37D19DF809109DF80820638B42EAFC
:10382800012213FB02F3002BB8BFFF3323F30F234E
:103838005B422B809DF80B109DF80A20A38B42EA6F
:10384800012213FB02F3002BB8BFFF3323F30F232E
:103858005B426B809DF80D109DF80C20E38B42EACB
:10386800012213FB02F3002BB8BFFF3323F30F230E
:103878005B423046AB8004B0BDE8F081FDF7B9F992
:103888000028B2D00026304604B0BDE8F0810123FC
:103898000DF1070202213846FFF71CFF0028F1D07E
:1038A8009DF80730DA07EDD5072302AA0321384629
:1038B800FFF710FF0646A1E798F80C3003BB04F1A8
:1038C8001005284602A9FEF7C7FC9DF8083008B184
:1038D800DB071AD4002388F8143098F80C303BB969
:1038E8000123022204F1140104F11000FDF78EF9FE
:1038F80000260123304688F8143004B0BDE8F08172
:10390800FDF777F90028DAD0BCE798F80C3033B91E
:1039180004F11401284607230322FDF777F902234F
:1039280088F814300026AEE7681F002070B582B012
:103938006A460623F721FFF759FE9DF801209DF8F6
:1039480004309DF800609DF803509DF802409DF8F2
:103958000500074912011B0142EA063243EA053312
:1039680042EA141243EA10134A600B6002B070BDB9
:10397800681F002000B583B0002000920A46682125
:10398800FFF7ACFD03B05DF804FB1749174B184A65
:10399800184810B4D1F8884044F47004C1F888403D
:1039A8001C6844F001041C605C6822405A601A6874
:1039B80022F0847222F480321A601A6822F480227B
:1039C8001A605A6822F4FE025A60DA6A22F00F027C
:1039D800DA621A6B002410404FF0006218639C6092
:1039E8008A605DF8044B704700ED00E0001002406B
:1039F8000CC07FF8CCFC00FF2DE9F04F80462DED80
:103A0800028BB0F908000881C5B28FB028460C4671
:103A1800924602F06DFD40B101231A4618466281B4
:103A28000FB0BDEC028BBDE8F08FA5F10A03E72BC0
:103A380000F2EA80DFE813F09706E800E800E80003
:103A4800E800E800E800E800E800E800E800E8002E
:103A5800E800E800E800E800E800E800E800E8001E
:103A6800E800E800E800E800AA06E800E800E80046
:103A7800C906E800E800E800BD05E800C605E8005A
:103A88000706E8002006E8002C06E8003106E800F2
:103A98005706E800E800E800BE01C501E800CD01CE
:103AA800E800E800E101E800E800E800E800E800D4
:103AB800B101E800E800E800E800E901E8000402D4
:103AC800E80025026802E800E800E800E800E800ED
:103AD800E800E8008C02E800CF02E800F902E800FC
:103AE8002903E8007E03E800E800E800E8008E0308
:103AF800CE03090412045C04E800E80043046E04E1
:103B0800E8007C04B504E800E800E800E800D20416
:103B1800E800E800DE04E800E800E8000005110518
:103B28002A056E05E800E800E800AC05E80026076D
:103B3800F806E800E800E800E800E800E800E80027
:103B4800E800E800E800E800E800E800E800E8002D
:103B58008E03E800E800E800E800E800E800E80074
:103B6800E800E800E800E800E800E800E800E8000D
:103B7800E800E800E800E800E800E800E800E800FD
:103B8800E800E800E800E800E800E800E800E800ED
:103B9800E800E800E800E800E800E800E800E800DD
:103BA800E800E800E800E800E800E800E800E800CD
:103BB800E800E800E800E800E800E800E800E800BD
:103BC800E800E800E800E800E800E800E800E800AD
:103BD800E800E800E800E800E800E800E800E8009D
:103BE800E800E800E800E800E800E800E800E8008D
:103BF800E800E800E800E800E800E800E800E8007D
:103C0800E800E80019076C06742D58D0772D10D1FC
:103C1800D8F80030D8F804209A421EBF5A1CC8F8B9
:103C280000201978AA4A08BF002120462EF08CF8F7
:103C3800F2E6F52D54D0D8F80410D8F80060A5F1B4
:103C4800210381468A1B362B00F21687DFE813F022
:103C5800C1061407140714071407140714071407D8
:103C6800E7061407140714071407140714071407A2
:103C78001407140714071407140714071407140764
:103C8800AF061407140714071407140714071407BA
:103C98001407140714071407140714071407140744
:103CA8001407140714071407140714071407140734
:103CB8001407140778061407550614075006D8F891
:103CC8000030D8F804209A421EBF5A1CC8F80020B9
:103CD8001978804A08BF002120462EF035F89BE667
:103CE800D8F80030D8F804209A4241F044877A4B3B
:103CF800FF221A724FF00008784D22F027FB414648
:103D08002022774885F8008032F05FFB8DF8148018
:103D18009DF81430072B02F26880724F704E4246AD
:103D28009DF8143003EB430307EBC3035B7CE3B15B
:103D38009DF8143003EB430307EBC30320215B69B1
:103D48009BB19DF8143003EB430307EBC303586999
:103D580046F82200FDF719FE2B7856F82300FDF7E8
:103D6800D5FF2A780132D2B22A709DF81430013377
:103D7800DBB28DF814309DF81430072BD0D92368A6
:103D8800591C21601A70BAF1000F3FF445AE564B2A
:103D9800CAF8003001231A4640E6236800255A1C59
:103DA8002260294620461D70FEF719FE2946204646
:103DB800FEF715FE00212046FEF711FE01231A46E4
:103DC8002CE6216801200A18226003460246087082
:103DD80024E62368454A404891785D1C256019709F
:103DE80023685278591C21601A70216800794A1C8E
:103DF800012322601A46087010E608223C49204632
:103E0800FEF7D6FD01231A4608E62368394D591CEA
:103E18002A7921601A7023686A79591C21601A70FE
:103E280029882046FEF7F2FD2368AA79591C2160EB
:103E38001A7069882046FEF7E9FD2168E879D6E717
:103E48002D4E3378002B3FF4E7AD2C4F0025B846B4
:103E5800236817F81520591C21601A7098F801106A
:103E680001EB810101EB810101F2EE2189B22046CB
:103E7800FEF7CCFD337801359D4208F10208E7DBF7
:103E8800CAE523681E4D01269A1922601E701DF08E
:103E9800D5FB002841F05E861A4B2268511C216030
:103EA8001070226841F2B410511C185C216041F274
:103EB8007811107059582046890AFEF790FDA96AB2
:103EC80020464908FEF78BFD01231A46A6E500BFE8
:103ED80001100308E91B0308B01F00203D52002011
:103EE800C0360020784C0020D1770208BC4700205B
:103EF800DC500020E45E0020BC350020883700201C
:103F080080870020587500202368A74E01255A1C79
:103F180022601D702368B278591921601A701BF04D
:103F280057F92368A14AA2495F1927601870B1F9A7
:103F38000010B2F90000FEF7F5FE23685A19226056
:103F4800187031882046FEF761FD2B462A4665E544
:103F580018F014FCFF28064601F005860EA9002576
:103F680001F82E5D0DF109008DF8095018F0E6FBF7
:103F78000EA800F82D5D18F0D5FB0EA800F82C5DF2
:103F880018F0C4FB0EA820F8245D18F0B3FB2368D2
:103F98005A1C22601E7023689DF80920591C216054
:103FA8001A7023689DF80A20591C21601A7023682A
:103FB8009DF80B20591C21601A7023689DF80C206D
:103FC800591C21601A70BDF814102046FEF71EFD1A
:103FD80001231A4622E5774FFB78002B01F0AD85C7
:103FE80023680822591C21601A7023680122991835
:103FF80021601A702368704D591C2A7921601A7043
:104008002368AA78591C21601A7029882046FEF76F
:10401800FDFCE9892046FEF7F9FC2368FA79591C6A
:1040280021601A702168E878E1E6624E23687279A7
:10403800624D591C21601A702B682046198CFEF7B6
:10404800E5FC2B682046D98BFEF7E0FC71892046F9
:10405800FEF7DCFCB1892046FEF7D8FC2B68204629
:10406800598CFEF7D3FC2B682046998CFEF7CEFCC2
:10407800F1892046FEF7CAFC318A2046FEF7C6FCC5
:104088002B68216893F82600B1E600212046FEF748
:10409800BDFC00212046FEF7B9FC00212046FEF7B2
:1040A800B5FC2368454D00265A1C22601E70236803
:1040B8002A68591C92F82C2021601A7023682A68F3
:1040C800591C92F8362021601A7023682A68591CF6
:1040D80092F8372021601A7023685A1C22601E70DB
:1040E80023685A1C22601E7023685A1C22601E70A6
:1040F8002B682046598FFEF789FC2B682046198FBC
:10410800FEF784FC23682A68591C92F82E20216047
:104118001A7023685A1C22601E702B682046598E1C
:10412800FEF774FC2B682046998EFEF76FFC01237E
:104138001A4673E42368224A2249D078224A5D1C31
:104148002560187023684979581C20601970216807
:10415800D0784CE60DF1140900220592DFF870A022
:104168001A4B03920492C9F80420904601214FF695
:10417800FF7B07E008F10108B8F10B0F01F02A8472
:104188001AF9011F4F1C4BFA08F2F3D0D607F1D5E4
:104198001A8842FA08F2D007ECD548460193FEF790
:1041A80013FF019BE6E700BF9C5F0020304700201B
:1041B80032470020144B0020384D0020D443002003
:1041C8009C47002008620020AC470020A443002040
:1041D800F8650308B54B9B8AB3F5006F01F2AA8412
:1041E800B3F5806F01F22C85B3F5007F34BF01274A
:1041F8000227AF4D05F10C0655F8041B91FBF7F1AA
:10420800204689B2FEF702FCAE42F5D1A94DAA4F6D
:1042180005F10C06B5EC010AD7ED087A80EE270AFD
:1042280031F016F981B22046FEF7F0FBAE42F1D12B
:10423800A24D05F10C0655F8041B204689B2FEF77D
:10424800E5FBAE42F7D1FFF7E7BB10229C492046B9
:10425800FEF7AEFB01231A46FFF7E0BB994D9A4ED5
:10426800DFF8A882DFF8A8929FED988A05F1200769
:104278000EE0FCEEE77ACDED017ABDF80410204699
:104288000435FEF7C3FBBD4206F118063FF4C4AB84
:10429800717C0029F3D098F80030D5ED007A012B15
:1042A800E7D1D9F80030DB0441F13A84F5EE407AE1
:1042B800F1EE10FA41F0FF8440F2DC51DFE7844D63
:1042C80020462988FEF7A2FB69882046FEF79EFB58
:1042D800B5F904307F49DA1781FB0313C2EBA30356
:1042E80099B22046FEF792FB01231A46FFF796BBC8
:1042F800794E3378002B3FF48FAB784F002537F891
:10430800021F2046FEF782FB337801359D42F6DB1B
:10431800FFF782BB724B20461968FEF760FB714BB2
:1043280020461988FEF772FB01231A46FFF776BB71
:104338006D4D23682A68591C127821601A702B6801
:1043480022689978531C2360002311702A68216819
:104358001A4401335279481C032B20600A70F5D1A6
:1043680023682A68591C127A21601A7023682A68FF
:10437800591CD27821601A7023682A68591C12794E
:1043880021601A702B6820465989FEF73FFB236885
:104398002A68591C527A21601A702B68216858784B
:1043A80025E5524D00232268286803EB4301561C7B
:1043B800405C266010702A6820680A44461C5278BF
:1043C800266002702A6820680A4401339278411CEA
:1043D8000A2B21600270E6D1FFF71EBB4449522325
:1043E8002268501C2060137011F8013F002BF7D190
:1043F800FFF712BB3F4D05F16006A9882046FEF77E
:1044080005FBE9882046FEF701FB29892046FEF7CF
:10441800FDFA2368AA7A591C21601A702368EA7A7F
:10442800591C21601A7055F80C1B2046FEF7D7FA64
:10443800B542E2D1FFF7F0BA2F4D20462988FEF7A2
:10444800E5FA69882046FEF7E1FAA9882046FEF7D2
:10445800DDFA01231A46FFF7E1BA2268274B2649FD
:104468001878551C2560107022685878551C2560EE
:10447800107022689B78501C20601370C9882046F1
:10448800FEF7C4FA01231A46FFF7C8BA23681C4A84
:104498001C4910781C4A5D1C2560187023688978AF
:1044A800581C2060197021689078A0E444470020C7
:1044B8007C4700202C4B0020C0680020183E0020BC
:1044C800543E0020643E0020784C0020000040420A
:1044D800B443002067666666BC350020C65F0020CE
:1044E800C05F002034440020A0890020D44300206D
:1044F800C865030864530020C85E00209447002064
:10450800144B00209C470020AC4700205C4D002045
:10451800384B0020DFF80CE30027FEB27146002379
:104528002268501C206016702268501C206013708E
:10453800226811F8010F0133551C062B25601070F5
:10454800EED10137062F0EF1060EE6D1A74900235A
:104558002268501C206017702268501C206013705D
:10456800226811F8010F0133551C0B2B25601070C0
:10457800EED123689E4A581C0721206019702368D1
:104588000021581C20601970216892F8F0002EE470
:10459800984D2046298AFEF739FA698A2046FEF79F
:1045A80035FAA98A2046FEF731FA01231A46FFF7A1
:1045B80035BA2268904B501C197820601170216818
:1045C800587814E48D4D23682A7A591C21601A7092
:1045D800A98B2046FEF71AFA298B2046FEF716FA11
:1045E800698B2046FEF712FA2368EA7C591C216081
:1045F8001A70A98C2046FEF709FAE98C2046FEF7C6
:1046080005FA2368AA7F591C21601A70236895F857
:104618002020591C21601A70698C2046FEF7F6F993
:104628002368EA7A591C21601A70E9682046FEF767
:10463800D6F923682A7C591C21601A70216895F8DC
:104648002100FFF7D4BB6A4D05F14006B5F880108C
:104658002046FEF7DBF9236895F88220591C216073
:104668001A70236895F883200435591CB5422160D7
:104678001A70EBD1FFF7D0B9614D05F1800655F8F6
:10468800041F2046FEF7ABF9B542F8D1FFF7C4B9CD
:104698005A4B2168587DFFF7AABB5A4B03F15A05BC
:1046A80022685979501C2060117022681978501CB2
:1046B8002060117022685978501C2060117022689F
:1046C8009978501C206011702268D978501C20609D
:1046D8001170226819790633501CAB4220601170A2
:1046E800DED1FFF799B9484D484E05F1300795F9E5
:1046F8000210474B93F906208A4203F1080301F0A0
:104708004B819E42F6D10835BD42F0D1FFF784B9FE
:10471800404B03F1700522681978501C2060117015
:1047280022685978501C2060117022689978501CB2
:10473800206011702268D978501C2060117022689E
:104748001979501C2060117022685979501C20601A
:104758001170226899790733501C9D4220601170AE
:10476800D9D1FFF759B92C4D28462FF0DBFB00288B
:104778007FF752A92B460544226813F8011B501CE9
:10478800AB4220601170F7D1FFF746B9234D05F110
:10479800500628782DF02CFB2368027A591C2160DA
:1047A8001A7023686A78591C21601A702368AA78DD
:1047B800591C21601A702368EA780435591CAE42E6
:1047C80021601A70E5D1FFF727B9154D20462988D1
:1047D800FEF71CF9A9882046FEF718F92989204612
:1047E800FEF714F901231A46FFF718B95F430020B2
:1047F8007C420020384D00209C3E0020DC500020E8
:1048080078420020EC380020D8590020B850002009
:104818008850002058540020BC430020E443002066
:10482800C42D00203B4300202368884F591C3A7848
:1048380021601A703B78002B3FF4EEA80025EEB2F9
:1048480030461DF045FD23684278591C21603046EA
:104858001A701DF03DFD01892046FEF7D7F83B7818
:1048680001359D42EBDBFFF7D7B8794D2046E98942
:10487800FEF7CCF8A9892046FEF7C8F801231A46A6
:10488800FFF7CCB8734B7449B3F9003081FB0321AF
:10489800DB17C3EBA10189B22046FEF7B7F8012365
:1048A8001A46FFF7BBB80723B2FBF3F3C3EBC30108
:1048B800521A1DD1DBB203F1FF395FFA89F9002BD7
:1048C8003FF4AAA8DFF894A109F101091746731C5F
:1048D800C8F8003096F90010604B002593F90220C3
:1048E8008A4203F1080301F006820135062DF5D14D
:1048F8004FF0FF331A46FFF791B8731CC8F8003021
:104908003578FF2D01F04782FE2D01F0C081404629
:10491800FEF73EF898E80C009B1A002B07DD531CA5
:10492800C8F80030137813B90B2D41F22982242DD1
:10493800DED84B4A012322F815001A46FFF76EB855
:10494800731CC8F8003030780328D1D8431E454D71
:104958004549DBB203EB430305EB430308705D787D
:1049680000283FF459A8531EDBB2AB42C0D1002245
:10497800C1F80620C1F802208A726BB1581CD8F819
:10498800003008444A1C0133C8F8003013F8011CF1
:1049980002F8011F8242F6D1344B1B78002B3FF4FA
:1049A8003BA824F0A3FE01231A46FFF737B8731C6F
:1049B800C8F8003033780A2B01F055814046FDF7DE
:1049C800F2FF4046FDF7EFFF4046FDF7ECFFFFF72B
:1049D80023B83346721CC8F80020254D13F8022B63
:1049E8006A70C8F8003073782B70F31CC8F8003070
:1049F800B378AB704046FDF7CBFFD8F8003028817C
:104A08001A46591CC8F8001012F8021B6971C8F838
:104A180000205B78AB7101231A46FEF7FFBF731CB9
:104A2800C8F8003033780A2B01F01781502B41F079
:104A38000A814046FDF7ACFF0E4D28804046FDF741
:104A4800A7FF012368801A46FEF7E8BF2D4800201B
:104A58009C470020AC47002067666666D85900204E
:104A6800205F002064680308DC560020D02D002059
:104A78008C5F0020442E0020A5F10B00EF283FF6A4
:104A880037AF01A353F820F051540008F948000843
:104A9800F9480008F9480008F9480008F9480008EA
:104AA800F9480008F9480008F9480008F9480008DA
:104AB800F9480008F9480008F9480008F9480008CA
:104AC800F9480008F9480008F9480008F9480008BA
:104AD800F9480008F9480008F9480008F9480008AA
:104AE800F9480008F9480008D7530008F9480008B1
:104AF800BD530008F94800089B530008F94800080E
:104B0800F9480008F94800086F530008F9480008F8
:104B180009530008F9480008D1520008F94800086C
:104B2800A9520008F948000895520008F9480008F9
:104B380033520008F9480008AF480008F94800084F
:104B4800F9480008F9480008F9480008213A00081F
:104B5800F948000801520008F9480008F948000817
:104B6800E5510008F9480008F9480008F948000824
:104B7800F9480008F9480008F9480008F948000809
:104B8800F9480008F9480008F94800085151000898
:104B9800F948000803510008F9480008F9480008D6
:104BA800C5500008F9480008F9480008F948000805
:104BB800F9480008F9480008F9480008F9480008C9
:104BC800C9570008F948000895560008F948000830
:104BD80027560008F94800086D550008F9480008EC
:104BE800FD540008DD540008BF540008F9480008C7
:104BF800F9480008F9480008F9480008F948000889
:104C0800F9480008F9480008F9480008F948000878
:104C1800F9480008F9480008F9480008F948000868
:104C2800F9480008F9480008F9480008F948000858
:104C3800F9480008F9480008F9480008F948000848
:104C4800F9480008F9480008F9480008F948000838
:104C5800F9480008F9480008F9480008F948000828
:104C6800F9480008F9480008F9480008F948000818
:104C7800F9480008F9480008F9480008F948000808
:104C8800F9480008F9480008F9480008F9480008F8
:104C9800F9480008F9480008F9480008F9480008E8
:104CA800F9480008F9480008F9480008F9480008D8
:104CB800F9480008F9480008F9480008F9480008C8
:104CC800F9480008F9480008F9480008F9480008B8
:104CD800F9480008F9480008F9480008F9480008A8
:104CE800F9480008F9480008F9480008F948000898
:104CF800F9480008F9480008F9480008F948000888
:104D0800F9480008F9480008F9480008F948000877
:104D1800F9480008F9480008F9480008F948000867
:104D2800F9480008F9480008F9480008F948000857
:104D3800F9480008F94800088D540008F9480008A7
:104D480053590008F9480008F9480008F9480008CC
:104D5800F9480008F9480008F9480008F948000827
:104D6800F9480008F9480008F9480008F948000817
:104D7800F9480008F9480008F9480008F7580008F9
:104D8800F948000869590008F94800081B57000845
:104D9800DD5800089D580008F9480008AB50000885
:104DA800F9480008815000086F5000080F500008AB
:104DB800F9480008E74F0008F9480008F9480008D2
:104DC800C54F0008914F00087D4F00084F4F00085D
:104DD800294F0008074F0008F9480008EF4E00085F
:104DE800F9480008F9480008F9480008F948000897
:104DF800F9480008F9480008F9480008F948000887
:104E0800F9480008F9480008F9480008F948000876
:104E1800F9480008F9480008D54E0008F948000884
:104E2800F94800086B4E0008F9480008F9480008DE
:104E3800F9480008F9480008F9480008F948000846
:104E4800F9480008514E0008D24B1B78DB073FF5A4
:104E58004FAD01F0CBFE02F0D1FC01231A46FEF75C
:104E6800DDBD731CC8F8003033780F2B3FF640AD1A
:104E7800B21CC8F80020C3EBC303C74A7178D154E9
:104E8800F11CC8F800101344B2785A70321DC8F8E3
:104E98000020F2789A70721DC8F800203279DA7012
:104EA800B21DC8F8002072791A71F21DC8F80020E6
:104EB800B2795A7106F10802C8F80020F2799A719D
:104EC80023F0B0FB01231A46FEF7A8BD4046FDF7C4
:104ED8005FFDB24DE8814046FDF75AFD0123A881E8
:104EE8001A46FEF79BBD4046FDF752FDAC4900EB64
:104EF8008000420001230A801A46FEF78FBD404613
:104F0800FDF746FDA74D28824046FDF741FD688222
:104F18004046FDF73DFD0123A8821A46FEF77EBDF7
:104F28003346721CC8F8002013F8020BC8F800308A
:104F3800F31C7178C8F80030B27819F087FD0028A2
:104F48007EF46AADD4E43346721CC8F80020964A51
:104F580013F8021B1170C8F80030904A73789370E8
:104F6800F31CC8F800308E4BB2789A7001231A46A9
:104F7800FEF754BD8D4B8E4918684E2230F0A6F8C6
:104F880001231A46FEF74ABD3246731CC8F80030A2
:104F9800884B12F8021B1970C8F8002072785A70F2
:104FA800F21CC8F80020B2789A704046FDF7F0FC71
:104FB800814A0123D0801A46FEF730BD4046FDF7EE
:104FC800E7FC7D4D28804046FDF7E2FC68804046BE
:104FD800FDF7DEFC0123A8801A46FEF71FBD774FB8
:104FE8003B78002B3EF418AD754E00254046FDF782
:104FF800CFFC27F003FB3B78A6EC010A01359D4264
:10500800F4DBFEF709BD0D2A7FF472AC731CC8F8F7
:1050180000303578072D3FF66BAC6A4F40460C26BA
:10502800FDF7B6FC06FB05F6BD19A8804046FDF75E
:10503800AFFCE8804046FDF7ABFCD8F8003028818B
:105048001A46591CC8F8001012F8021BA972C8F8B1
:1050580000205B78EB7240462FF037FE0123B851F1
:105068001A46FEF7DBBC4046FDF792FC564A012380
:1050780010801A46FEF7D2BC731CC8F8003030788E
:10508800060600F16D87434B1B78DD073EF5C4AC7F
:10509800032828BF002001F08DFD01231A46FEF7E2
:1050A800BDBC3C4B1B78D8073EF5B6AC01F072FE90
:1050B80002F0A4FB01231A46FEF7B0BC434B1B7851
:1050C800012B3EF6A9AC3246731CC8F80030404D9F
:1050D80012F8023BAB70F31CC91AC8F8002001296A
:1050E8007278C8F8003040F3BD864046FDF750FCA2
:1050F800012328801A46FEF791BC731CC8F80030BB
:105108003778112F3FF6F4ABB31CC8F80030314D97
:10511800737805F817304046FDF73AFC40F6CA03A5
:105128009842A8BF184640F2EE23984205EB47057F
:10513800B8BF18460123A0F2EE211A46192091FBA8
:10514800F0F16970FEF76ABC3346721CC8F800209B
:10515800214D13F8022B2A71C8F8003073786B714F
:105168004046FDF715FCD8F8003028805A1CC8F8CE
:1051780000201B78AB714046FDF70AFCD8F80030D8
:1051880068805A1CC8F800201B78EB7101231A4666
:10519800FEF744BCBB510020585400209C47002017
:1051A800AC470020384D0020144B0020D443002089
:1051B8000886030894470020C85E00202D48002078
:1051C800205E002064530020602100209B630020A3
:1051D8009C5F002088370020E45E0020D14B06F158
:1051E80008020136C8F8006016F8011C03F8011F10
:1051F800B242F6D1FEF710BC3346721CC8F8002044
:10520800C94A13F8020B9070C8F8003070785070D3
:105218008B423EF401ACF31CC8F80030C34BB278A3
:105228001A7101231A46FEF7F9BB731CC8F800303F
:1052380033780E2B3FF65CABB21CC8F800207078B0
:1052480003283FF655ABBA49062202FB03F28B1836
:10525800F51C5871C8F80050B0788854321DC8F849
:105268000020F2785A70721DC8F8002032799A70BE
:10527800B21DC8F800207279DA70F21DC8F8002053
:10528800B2791A7101231A46FEF7C8BB731CC8F815
:105298000030A84B32785A7501231A46FEF7BEBB78
:1052A800731CC8F8003035781F2D3FF621AB052A4E
:1052B8007FF41EAB40462FF008FD9F4B43F82500B6
:1052C80016F0B0FFFEF7A8BB9B4D05F1400640461F
:1052D800FDF75EFBD8F80030A5F88000591C1A4687
:1052E800C8F8001012F8021B85F88210C8F80020D0
:1052F8005B7885F883300435AE42E8D1FEF78CBB85
:10530800731C8C4DC8F8003033782B724046FDF77B
:105318003FFBA8834046FDF73BFB28834046FDF74B
:1053280037FBD8F800206883531CC8F8003012787F
:10533800EA74D8F80420D31A032B00F3E185D8F8CF
:105348000030D11A052900F3C585D21A002A7EF744
:1053580063AB5A1CC8F800201B7885F8213001235C
:105368001A46FEF75BBB731CC8F8003073483278E6
:105378000270C91A00297EF74FABB31CC8F8003079
:105388007278003218BF0122012342701A46FEF7D4
:1053980045BB4046FDF7FCFA694D28604046FDF7DD
:1053A800F7FA68604046FDF7F3FA0123A8601A4649
:1053B800FEF734BB634D00232B6040462FF085FC7D
:1053C8002A68012302432A601A46FEF727BB731C8A
:1053D800C8F800303578132D3FF68AAAB31CC8F8F0
:1053E800003070782CF0EAFC00283FF481AA564B74
:1053F800027803F82520F21CC8F8002003EB850585
:10540800B2786A70321DC8F80020F278AA70721D4E
:10541800C8F800203279EA7003F1500102E0043341
:105428008B4208D01A78002AF9D19878DA78904215
:10543800F5D24FF00109454A89F00109012382F8A4
:1054480000901A46FEF7EABA4149102A13464FF06F
:10545800000228BF10230A604A608A60CA600A7482
:10546800002B3EF4D9AAD8F80020013913440132A0
:10547800C8F8002012F8010C01F8010F9A42F6D181
:10548800FEF7CABA3346721CC8F8002013F8025B4C
:10549800C8F80030F31C7078C8F80030B178002DD7
:1054A80000F0EC84012D7EF4B7AA0CF0CDFD2B465C
:1054B8002A46FEF7B3BA731CC8F800303378002BBD
:1054C80000F0C7844FF480300EF062FF01231A46C3
:1054D800FEF7A4BA1F4B1B7813F001017FF408AA4A
:1054E800731CC8F8003030782FF00CFC01231A46E2
:1054F800FEF794BA3346721CC8F80020164A13F80F
:10550800021BD170C8F80030144A73785371F31C29
:10551800C8F80030124BB278DA7001231A46FEF749
:105528007DBA00BFDB500020BC470020B01F002020
:10553800EC380020DC5000207C4200209C3E0020FB
:10554800C42D0020B0630020E44300208E1D0020FD
:10555800BC430020BB5100209C470020086200206B
:10556800AC4700204046FDF713FA4046FDF710FA15
:105578004046FDF70DFA4046FDF715FAD8F8003019
:10558800CB4D1946581C2A68C8F8000011F8020BC0
:1055980082F82C00C8F80010597882F83610D91C07
:1055A800C8F800109B7882F837304046FDF7FBF9C1
:1055B8004046FDF7F8F94046FDF7F5F940462E68F4
:1055C800FDF7E6F9708740462E68FDF7E1F9D8F84F
:1055D8000030D8F804203087D11A01290DDD591C74
:1055E8002A68C8F800101B7882F82E304046FDF76C
:1055F800DAF9D8F80030D8F80420D31A032B09DDDB
:1056080040462E68FDF7C4F9708640462E68FDF7BF
:10561800BFF9B086286826F0C1FEFEF7FDB9731CF5
:10562800C8F80030A24DA34F33787B7140462E68EE
:10563800FDF7AEF9308440462E68FDF7A9F9D8F891
:105648000420D8F80030F083D11A072900F32A84FF
:10565800D11A032900F31884D21A002A06DD591C2E
:105668002A68C8F800101B7882F8263001F0C8FABA
:105678001DF0EEF9904B28681B68002B00F0C783DB
:1056880026F0FCFA01231A46FEF7C8B93346721C05
:10569800C8F80020874F13F8022BBA70C8F80030FA
:1056A800864A73781370F31CC8F80030844DB378B9
:1056B8002B71331DC8F80030F378092BA8BF0923D4
:1056C8004046AB70FDF764F9D8F80030D8F80420EC
:1056D8002880D11A012907DD4046FDF759F9D8F885
:1056E8000030D8F80420E8819A4240F02F8401F075
:1056F80087FAD8F80030D8F804209A423EF48CA9EA
:105708005A1CC8F800201B78EB7001231A46FEF7D4
:1057180085B9092A7FF7ECA86A4F3346721C3D68A1
:10572800C8F8002013F8022B2A70C8F800307378E4
:10573800AB70F31CC8F80030B378642BA8BF64239F
:10574800321D6B71C8F80020F378642BA8BF64235E
:10575800721DAB71C8F800203379EB71B31DC8F81E
:1057680000307379642BA8BF6423F21D2B72C8F82C
:105778000020B379EB7006F10803C8F80030F3791C
:105788002B714046FDF704F9D8F80420D8F800300A
:105798006881D11A00290DDD591C3868C8F8001035
:1057A800521A002A1978417204DD9A1CC8F80020A0
:1057B8005B7843702DF0BCFC01231A46FEF72EB926
:1057C8004046FDF7E5F8054616F0D8FFFF283EF4F9
:1057D80023A93F2D00F226830DF13809002309F88B
:1057E800243DEE08494603A88DF80C30013616F022
:1057F800A5FF9DF80C30F6B205F00705B34205F198
:10580800010503D19DF81430AB4203D02946304638
:1058180016F0A0FFD8F80030D8F80420D21A012AD0
:105828007EF7FAA85A1C0EA8C8F8002000221D7896
:1058380000F82C2D16F076FF9DF80C30AB420AD0FC
:10584800214B1B683BB19A79AA4204D31B681B6998
:105858000BB128469847D8F800305A1CC8F80020E1
:10586800484600221D788DF8142016F04FFF9DF849
:105878001430AB423EF4D0A8134B1B68002B3EF407
:10588800CBA81B685B69002B3EF4C6A8284698473E
:10589800FEF7C2B80D4B1B78DA073EF5BDA80C49D8
:1058A8000A78012342F004020A701A46FEF7B6B8D5
:1058B800D4430020144B0020843E00209047002051
:1058C800384D0020A0890020D0430020BB51002083
:1058D800885F0020C64B1B78D9073EF59DA8C54AAE
:1058E8004FF4C871012311801A46FEF797B8C2F326
:1058F8004705122D3EF6FCAFBDB10EAB0DF11207F8
:1059080003EB45093E46A9F126094046FDF740F854
:1059180026F8020F4E45F8D1B74B37F8022F23F877
:10592800022FBE42F9D1112D09D8B44A6B00023BAF
:1059380013440021223223F8021F9A42FBD1B049B6
:10594800012213460A70FEF769B8AE4D002340469F
:105958002B602FF0BAF9012328601A46FEF75EB8CB
:10596800A94B1868F31C02462136991EC8F8001086
:1059780013F8031C1170591EC8F8001013F8021C04
:105988005170C8F8003013F8011C917003339E421F
:1059980002F10302E9D13EE623685A1C226019701D
:1059A80029882046FDF732F82368EA78591C2160D7
:1059B8001A7023682A79591C21601A702368AA79F9
:1059C800591C21601A7023686A79591C21601A7061
:1059D800FEF799BEDFF864B24FF000084FF0280ACE
:1059E80008F10108C8F120020AFA02F2A8F120031E
:1059F8002BFA08F616432AFA03F31E43B8F1270FC9
:105A080006F001024FF000030CD01343E8D05FFA10
:105A180088F02DF02BFB0028E2D041464846FDF7E0
:105A2800D3FADDE7724B1B78DA0700F1D080002645
:105A3800764FB04602E00136272E0ED03146384662
:105A4800FDF7D1FA0028F6D031464846FDF7CBFAE3
:105A5800002860D108F10108EDE76D4B6D4EB3F8F1
:105A680050102046FCF7D2FF6B4B1988204689B2AC
:105A7800FCF7CCFF694B1A68530103F02001C2F30D
:105A880040030B43C2F3800143EA4103C2F3C00160
:105A980043EA8103C2F3401143EAC10102F0100254
:105AA80011432046FCF7B2FF03A904222046FCF765
:105AB8007FFF236831785A4A581C20601970118872
:105AC8006429A8BF64212046FCF7A0FF962D00F0AA
